:100000000A128A1112280800FE00030EF3000408E9
:10001000F4000A08F500831203137F08F6000A12A1
:100020008A15812F0A128A111528F701F801F901A2
:10003000FA01FB0183134630840066300A128A15E8
:1000400084230A128A11A0308400EF300A128A1524
:1000500084230A128A11831790308400D4300A1244
:100060008A1584230A128A1183136F30FD000B3026
:10007000FE008C30FF00663084000A128A15E823E7
:100080000A128A110A128A11FE210A128A11FC0030
:100090000A128A11FF21FD0083010A128A15462DDA
:1000A000831203130C1F0800831603130C1F080090
:1000B000831203130C135208033A03196A280430FD
:1000C0005202031C66285208FF3E67285208F000BF
:1000D0007008DF00FF30831603131E05F0000330A5
:1000E000831203131E05F1005F08F2007207A03EA1
:1000F0008400700883138000840A71088000073030
:100100005202031890280130F0007008D2075208FC
:10011000033A031D91280130F0007008D20791289E
:10012000D201C730F00070089F055208F00002307D
:100130000310F00DFF3E031D98280310700D383991
:10014000F10071089F04080065300A128A15D7264D
:100150000A128A11831203134F080319B7284E0895
:100160000319B72850080319B7280630DE284F08AE
:100170000319BF284E080319BF280230DE284E0895
:100180000319C72850080319C7280430DE284F0870
:100190000319CF2850080319CF280730DE284E084E
:1001A0000319D4280530DE284F080319DA28DE01A8
:1001B000DE0AE32850080319E2280330AC002C08BB
:1001C000DE00E328DE015E08080083120313A800A6
:1001D00027080319F42828080A128A118021003AF6
:1001E00000300319013008008312031328080A1293
:1001F0008A118021080083120313DB010800080024
:100200000029FF0001308A007F08820706290A12B0
:100210008A156C2B0A128A1103280A128A11FF28E8
:1002200083120313A500A301A401083025020318BB
:100230001D290030A400873050290E3025020318F4
:1002400027290830A5020030A40086305029153037
:100250002502031847290E30A50203302502031C8E
:1002600039292508033A031D3D290230A100210840
:10027000A5070030A4008530502907302502031857
:1002800051290430A5020030A400893050291D30C6
:100290002502031851291530A5020030A40088302A
:1002A000A30024082304031908002008013A031DB1
:1002B0006C290130A100250A5F290310A10DFF3E22
:1002C000031D5D292108A200230884008317241C34
:1002D00083132208800408000130A100250A722936
:1002E0000310A10DFF3E031D70292108FF3AA20053
:1002F000230884008317241C831322088005080028
:1003000083120313A600A401A501083026020318D6
:100310008D290030A5000730C0290E3026020318B1
:1003200097290830A6020030A5000630C0291530F4
:1003300026020318B7290E30A60203302602031C3A
:10034000A9292608033A031DAD290230A000200880
:10035000A6070030A5000530C02907302602031883
:10036000C1290430A6020030A5000930C0291D3083
:1003700026020318C1291530A6020030A500083056
:10038000A400250824040319E4290130A000260A4A
:10039000CB290310A00DFF3E031DC9292008A10091
:1003A0002108A300240884008317251C8313000858
:1003B0002305A0002008A20023082206031DE2292D
:1003C00001300800003008000030080083120313D9
:1003D000BA003A08031908003808AF003708AE0021
:1003E0003608AD003508AC00EB30B9003908B00074
:1003F0000A128A156D258312031308000134013493
:10040000233443346F346D346D3461346E3464346A
:1004100020344E346F347434203453347534703493
:1004200070346F347234743465346434003423347B
:100430004C3469346E3465342034533465346E344E
:1004400073346F34723473342034533474346134FD
:1004500074347534733400342334573461346C3459
:100460006C342034533465346E3473346F347234E6
:1004700073342034533474346134743475347334C5
:10048000003423345434653472346D3469346E343A
:10049000613474346F3472342034503472346F34B5
:1004A00062346C3465346D34003423345334743422
:1004B0006F3470342034523469346734683474349F
:1004C00020344D346F3474346F3472340034233438
:1004D000533474346F34703420344C34653466349F
:1004E000743420344D346F3474346F3472340034C7
:1004F0002334523475346E342034523469346734C2
:100500006834743420344D346F3474346F3472343E
:1005100000342334423475346634663465347234BE
:1005200020344F3476346534723466346C346F342E
:10053000773400342334523475346E3420344C34E0
:1005400065346634743420344D346F3474346F340D
:100550007234003423344D346F34763465342034AF
:100560004234613463346B347734613472346434CC
:10057000003423344D346F347634653420344634BB
:100580006F34723477346134723464340034233419
:1005900052346F34743461347434653420345234DA
:1005A00069346734683474340034233452346F341B
:1005B000743461347434653420344C3465346634B6
:1005C0007434003423345434753472346E3420342B
:1005D0005234693467346834743400342334543406
:1005E000753472346E3420344C346534663474346B
:1005F00000342334533474346F3470342034503422
:1006000042346F3474340034433445344E345434FB
:10061000453452340034533449344434453453342B
:100620000034523449344734483454340034463466
:1006300052344F344E34543400344B344E344F34EF
:1006400057344E3400344C3449344E34453400343D
:100650004E344F344E344534003442344F345434E5
:10066000483400344E3455344C344C3400344E3419
:1006700045344134523400344F34563445345234C6
:10068000003472344C34533452340034723457349E
:100690005334523400344C344534463454340034EA
:1006A00072344C345334433400347234573453343A
:1006B000433400346D3446345734443400346D349C
:1006C000423443344B34003463344E345334503466
:1006D00000347334503442345434003472344C3463
:1006E00046345434003474344C3446345434003476
:1006F00072345234473454340034743452344734EE
:100700005434003472344C344D3454340034733423
:100710004C344D3454340034723452344D345434E7
:100720000034733452344D3454340034463441343C
:100730005234003444343034303400344E344F3486
:10074000543400342034003446340034831203130C
:10075000AB00402C4630A4008330A5003730A60003
:100760008330A7001730A8008330A90060300A1238
:100770008A1121270800463083120313A400833016
:10078000A5004B30A6008330A7000430A8008330BA
:10079000A90060300A128A1121270800463083120E
:1007A0000313A4008330A5001130A6008330A700F6
:1007B0000430A8008330A90060300A128A11212772
:1007C0000800463083120313A4008330A5002D30A7
:1007D000A6008330A7000B30A8008330A90060304A
:1007E0000A128A1121270800463083120313A4003D
:1007F0008330A5009630A6008330A7001730A800EC
:100800008330A90060300A128A112127080046307F
:1008100083120313A4008330A5004B30A60083305D
:10082000A7003230A8008330A90060300A128A1174
:1008300021270800463083120313A4008330A5004B
:100840001130A6008330A7003230A8008330A90001
:1008500060300A128A1121270800463083120313E0
:10086000A4008330A5002830A6008330A7003230D2
:10087000A8008330A90060300A128A1121270800DD
:10088000831203132B08013A0319072C033A0319A7
:10089000BB2B013A03191A2C073A0319CE2B013A44
:1008A0000319F42B033A0319AA2B013A0319E12B7C
:1008B0002D2C080083120313AB00E12C4130A4005F
:1008C0008330A5003C30A6008330A7002330A80069
:1008D0008330A90060300A128A11212708004130B4
:1008E00083120313A4008330A5004B30A60083308D
:1008F000A7000430A8008330A90060300A128A11D2
:1009000021270800413083120313A4008330A5007F
:100910001130A6008330A7000430A8008330A9005E
:1009200060300A128A112127080041308312031314
:10093000A4008330A5004B30A6008330A7003230DE
:10094000A8008330A90060300A128A11212708000C
:10095000413083120313A4008330A5001130A60098
:100960008330A7003230A8008330A90060300A121B
:100970008A1121270800413083120313A400833019
:10098000A5000430A6008330A7003230A8008330D1
:10099000A90060300A128A11212708004130831211
:1009A0000313A4008330A5002830A6008330A700DD
:1009B0003230A8008330A90060300A128A11212742
:1009C0000800831203132B08013A0319952C033AEC
:1009D00003196F2C013A0319A82C073A0319822C2A
:1009E000013A03195E2C033A0319BB2CCE2C0800E4
:1009F00083120313A608003003190130A800280849
:100A0000E5002708A8002808E400A001A00A033098
:100A10000A128A1110210A128A1183120313A001EB
:100A2000A00A00300A128A1110210A128A118312B8
:100A30000313A001A00A04300A128A1110210A121D
:100A40008A1183120313A001A00A09300A128A1125
:100A500010210A128A1183120313A001A00A053083
:100A60000A128A1110210A128A1183120313A0019B
:100A7000A00A0A300A128A1110210A128A1183125E
:100A80000313A001A00A08300A128A111A260A12BA
:100A90008A1183120313A001A00A01300A128A11DD
:100AA0001A260A128A1183120313A001A00A023027
:100AB0000A128A111A260A128A1183120313A0013C
:100AC000A00A0B300A128A111A260A128A118312FE
:100AD0000313A00108300A128A1110210A128A1188
:100AE00083120313A00101300A128A1110210A1285
:100AF0008A1183120313A00102300A128A111021F5
:100B00000A128A1183120313A0010B300A128A11F0
:100B10001021080083120313060883160313060529
:100B20007706F0007008FA007A1EB52D83120313C1
:100B30005708023A031D9E2D061EAA2D5708033A98
:100B4000031DA42D061AAA2D69080A128A11012173
:100B50000A128A11EF30F0007008F70583120313B0
:100B600006081039F0007008F704FA1ED52D83121C
:100B70005808023A031DBE2D861ECA2D5808033A96
:100B8000031DC42D861ACA2D6A080A128A11012172
:100B90000A128A11DF30F0007008F7058312031380
:100BA00006082039F0007008F7047A1FF52D83122B
:100BB0005908023A031DDE2D061FEA2D5908033A93
:100BC000031DE42D061BEA2D6B080A128A11012170
:100BD0000A128A11BF30F0007008F7058312031360
:100BE00006084039F0007008F704FA1F132E83122C
:100BF0005A08023A031DFE2D861F082E5A08033A92
:100C0000031D042E861B082E6C080A128A1101216E
:100C10007F30F0007008F70583120313060880394F
:100C2000F0007008F704831603130608F00070083C
:100C3000F705080083120313A500A301A4010830DF
:100C400025020318272E0030A40007305A2E0E303C
:100C500025020318312E0830A5020030A40006300A
:100C60005A2E153025020318512E0E30A5020330DE
:100C70002502031C432E2508033A031D472E02308C
:100C8000A1002108A5070030A40005305A2E073026
:100C9000250203185B2E0430A5020030A4000930A1
:100CA0005A2E1D30250203185B2E1530A502003088
:100CB000A4000830A3002408230403190800A00896
:100CC000031D752E0130A100250A682E0310A10D09
:100CD000FF3E031D662E2108A2002308840083170F
:100CE000241C83132208800408002008013A031DF5
:100CF0008D2E0130A100250A7F2E0310A10DFF3E8D
:100D0000031D7D2E2108FF3AA200230884008317CB
:100D1000241C83132208800508000130A100250A45
:100D2000932E0310A10DFF3E031D912E2108A2005A
:100D3000230884008317241C8313220880060800DC
:100D4000D72E8316031318158130990008008316D7
:100D5000031318151430990008008316031318158F
:100D60000A309900080083160313181540309900C3
:100D700008008316031318114030990008008316E9
:100D80000313181520309900080083160313181157
:100D9000813099000800831603131811FF30990061
:100DA0000800831603131815813099000800831278
:100DB00003132208003A0319DE2ED12E2108043A2B
:100DC0000319F82E0D3A0319FD2E1B3A0319022FB1
:100DD000373A0319072F6E3A03190C2FDD3A03191E
:100DE000112F543A0319162F233A03191B2FD12E12
:100DF0002008B03A0319CB2ED12E2008603A0319EF
:100E0000C52ED12E2008C03A0319B92ED12E2008A4
:100E1000803A0319A12ED12E2008003A0319B32ECF
:100E2000D12E2008003A0319BF2ED12E2008003AF7
:100E30000319AD2ED12E2008003A0319A72ED12E6A
:100E4000080083120313AA002A08A2000030A3009E
:100E50000A128A1514260A128A11A2308312031369
:100E6000A2008330A3000A128A1514260A128A11DE
:100E7000831203132508A301A3072408A201A207D4
:100E80000A128A1514260A128A11A2308312031339
:100E9000A2008330A3000A128A1514260A128A11AE
:100EA0008330831203132706031D582F3230260682
:100EB0000319902F2708A301A3072608A201A20760
:100EC0000A128A1514260A128A11A23083120313F9
:100ED000A2008330A3000A128A1514260A128A116E
:100EE0008330831203132906031D782F323028061E
:100EF0000319902F2908A301A3072808A201A2071C
:100F00000A128A1514260A128A11A23083120313B8
:100F1000A2008330A3000A128A1514260A128A112D
:100F20000D300A128A1540260A128A110A300A1256
:100F30008A154026080083120313A4001F1083168D
:100F4000031305148514051585160914891409154C
:100F5000831203132408013A031DB62FF030A200B8
:100F60002208831603139F051F14BE2FF03083122F
:100F7000A2002208831603139F051F080A128A1570
:100F8000A9230A128A1183120313D201C730A200C7
:100F900022089F055208A20002300310A20DFF3E56
:100FA000031DCD2F0310220D3839A30023089F0401
:100FB0000C13831603130C17831203131F14E82F4B
:100FC0000A128A157C230A128A11013A031DEA2F9C
:100FD0008B1FE02F8B130B13103083120313A2000F
:100FE000A20BF02F00008B170B17831203131F1592
:100FF0000800013083120313A0002008DC00080061
:10100000FF1B0A2883137F1883170008840A03191B
:10101000FF0A08007F087F398A000408840A031940
:04102000FF0A820041
:1016D80008000130F000700883120313DB000800D3
:1016E800831203135B08A0002008A100210808004A
:1016F800831203135C08A0002008A1002108080039
:1017080064008001840A0406031900340406852B4A
:101718000D340D340D340D340D340D340D340734BF
:101728000A34831603175208013E1F395306003046
:10173800031901300800E83083120313AF000330A7
:10174800B0000A128A15482708003F308312031395
:10175800A00020089F059F17831603131F179F17C4
:1017680008000A128A150F270A128A158312031312
:10177800AD002D08AE002E080A128A115A2408005E
:101788000A128A11A4200A128A1583120313AD00C3
:101798002D08AE002E080A128A11A6230800F83078
:1017A80083120313A0002008831603138105011474
:1017B800811281118312031381010B118B1608000A
:1017C8007E088A007F088200E4230A128A158000B6
:1017D800840A04087D0603190034FF0A0319FE0A67
:1017E800E82B8B130B13013083160313C807031858
:1017F800C90A0030C90783120313DB08031D080058
:101808008B170B1708008B130B1370088316031321
:10181800CC070318CD0A7108CD0783120313DB0820
:10182800031D08008B170B170800831203135308B6
:10183800013A031D262C83160313011B252C0117BF
:10184800262C0113831266080A128A110121080046
:1018580083120313BB01BC01BC0ABD01BD0A0030E1
:10186800C1000030C0002530BF008030BE0000300D
:101878000A128A15E92508008316031349088312FA
:101888000313A301A3078316031348088312031342
:10189800A201A2072308A101A1072208A001A0070D
:1018A8000800831203130C1C0800831603130C1C76
:1018B8000800831203131010831603130C108312ED
:1018C80003130C106D080A128A11012108008312F3
:1018D80003138C1C0800831603138C1C0800831246
:1018E80003138C10831603138C1083120313121125
:1018F8006E080A128A11012108000B1A8B1C8C2C05
:101908000B120A128A1519240A128A158B100B1643
:101918008B1D08000B1C08008B110A128A118A25DE
:101928000B108B1508000A128A1574230A128A15DF
:10193800013A0319972C8B130B130A128A154024AA
:10194800831203132108A701A7072008A601A607E9
:101958008B170B172708A501A5072608A401A407BC
:101968000800831203132908A401A4072808A30167
:10197800A3070A128A15F8240A128A150A128A1568
:10198800972483120313250883160313D101D10763
:1019980083120313240883160313D001D007080009
:1019A800831203138C1E0800831603138C1E080071
:1019B800831203138C121A08F000831603173008D9
:1019C800903E84007008831780003008013E1F395C
:1019D800F0007008FB0031087B06031908007B083B
:1019E800F0007008B000080083160317D201D30175
:1019F800B001B101831203132308A0002408A10039
:101A0800A2010A128A11A0268316031318131812AA
:101A180098168312031318131816981783160313AE
:101A28000C12831203130C12831603138C168312E1
:101A380003138C1208003F308312031385003F30D4
:101A48008316031385008312031386018316031379
:101A58008601C03083120313870080308316031376
:101A680087000C308312031388000C30831603138D
:101A78008800073083120313890007308316031385
:101A8800890008000A128A151F250A128A150A12E7
:101A98008A15D3230A128A1500300A128A119B2745
:101AA8000A128A158B170B170A128A11F9270A12BC
:101AB8008A150A128A152C240A128A150A128A15FE
:101AC800BF270A128A150A128A159F230A128A1535
:101AD800622D83120313B301043033020318892DD6
:101AE80033083007B1003108840083130008B200BE
:101AF8003308603E8400320880000130B1003108AC
:101B0800B30704303302031C742D2F08AB002E08D2
:101B1800AA002D08A9002C08A8000A128A15B524C5
:101B280008000A128A1574230A128A15013A031941
:101B3800952D8B130B13831203132409A600250973
:101B4800A700A60A0319A70A0A128A1540248312B5
:101B5800031326082007A80027080318270A2107C7
:101B6800A9008B170B172908A501A5072808A401A8
:101B7800A40708000B1D08008B1E08000B1100307D
:101B8800F0000130F1000A128A1507240A128A159A
:101B9800CD3083160313D6070318D70A0030D707AA
:101BA80003305702E83003195602031C08000A12D2
:101BB8008A15F5230A128A15E83083160313D6020C
:101BC8000330031CD703D702D42D83120313C50097
:101BD800C4014508033A031DF32DC401C40A3B0898
:101BE800C2004208A6003C08C3004308A7004508F5
:101BF8000A128A11F8240A128A15831203133D085F
:101C0800C2004208B4004108B8004008B7003F08C5
:101C1800B6003E08B50044080A128A11E6210800F9
:101C2800831203132308FF00220884000A128A156E
:101C380000200A128A15003803193B2E8312031359
:101C48002308FF00220884000A128A1500200A12BD
:101C58008A150A128A1540260A128A15013083123B
:101C68000313A2070318A30A0030A307142E003099
:101C78000A128A154026080083120313A1000A12CB
:101C88008A1595230A128A150038031D432E8316D8
:101C980003130C12831203132108A00083160317E1
:101CA8005208B23E84008312031320088317800071
:101CB8000130A000200883160317D2071F308312B3
:101CC8000313A000200883160317D20583160313F5
:101CD8000C160800831203130C1E08008316031346
:101CE8000C1E0800831203130C12831603175308E3
:101CF8005206031D832E831603130C120800831645
:101D080003175308B23E8400831700088312031395
:101D180099000130F000700883160317D3071F30AD
:101D2800F0007008D30553085206031D08008316F7
:101D380003130C12080083120313AB002B08840052
:101D480083130008A9002908A7000A300A128A117B
:101D5800E5200A128A1583120313AA002A08CB0069
:101D68002B08840083130008A9002908A700053060
:101D78000A128A11E5200A128A1583120313AA008F
:101D88002A08CA002B08840083130008A900290820
:101D9800A70009300A128A11E52083120313AA004A
:101DA8002A08CC00080083120313AB002B08840018
:101DB80083130008A9002908A70004300A128A1111
:101DC800E5200A128A1583120313AA002A08CF00F5
:101DD8002B08840083130008A9002908A7000030F5
:101DE8000A128A11E5200A128A1583120313AA001F
:101DF8002A08CE002B08840083130008A9002908AC
:101E0800A70003300A128A11E52083120313AA00DF
:101E18002A08D000080064300A128A159F260A1280
:101E28008A15831203134B080319222F4A08031932
:101E3800222F4C080319222F0530412F4B08031974
:101E48002A2F4A0803192A2F0230412F4A0803195A
:101E5800322F4C080319322F0430412F4B08031935
:101E6800382FDD01DD0A462F4C0803193D2F0330BA
:101E7800412F4A080319452F0630AC002C08DD0015
:101E8800462FDD015D0808008316031351088312ED
:101E98000313A501A5078316031350088312031320
:101EA800A401A4070A128A1595250A128A15831215
:101EB800031330082502031D632F2F082402031C77
:101EC80008000A128A1597240A128A158312031326
:101ED800250883160313D101D1078312031324089D
:101EE80083160313D001D0070A128A15C4230A12D5
:101EF8008A150A128A15B52308008B130B130A12C8
:101F08008A156D230A128A150A128A15BE250A1225
:101F18008A150A128A1555240A128A150A128A1570
:101F28006B240A128A150A128A15D4240A128A15F1
:101F38000A128A1581240A128A150A128A156E262F
:101F48000A128A150A128A1150200A128A150A12D0
:101F58008A11FB200A128A158B170B177608831231
:101F68000313FF0075088A0074088400730E830049
:101F7800FE0E7E0E09008316031355088312031301
:101F8800A501A50783160313540883120313A4019C
:101F9800A4070A128A1595250A128A1583120313B3
:101FA800250883160313D301D307831203132408C8
:101FB80083160313D201D2070030530205300319E8
:101FC8005202031C08000A128A1597240A128A155D
:101FD80083120313250883160313D501D50783122B
:101FE8000313240883160313D401D407831203139D
:081FF8001F1908001F15080065
:02400E0032FF7F
:00000001FF
