:060000000A128A11122809
:10000800FE00030E83120313E0000408E1000A084F
:10001800E2007F08E3000A128A15BD2E0A128A112F
:100028001528FC01FD0183132030840051300A1289
:100038008A15FE230A128A11A0308400ED300A12B4
:100048008A15FE230A128A11831790308400EC3037
:100058000A128A15FE230A128A11103084001E30F3
:100068000A128A15FE230A128A1183136030FD00D2
:100078000C30FE002A30FF00513084000A128A1525
:100088007F2483010A128A153F2EF900F701F8012F
:1000980008307902031854280030F8000730872800
:1000A8000E30790203185E280830F9020030F80093
:1000B800063087281530790203187E280E30F90299
:1000C80003307902031C70287908033A031D742849
:1000D8000230F5007508F9070030F8000530872868
:1000E80007307902031888280430F9020030F80034
:1000F800093087281D307902031888281530F9023D
:100108000030F8000830F700780877040319080071
:10011800F408031DA2280130F500790A9528031078
:10012800F50DFF3E031D93287508F6007708840037
:100138008317781C83137608800408007408013A32
:10014800031DBA280130F500790AAC280310F50D13
:10015800FF3E031DAA287508FF3AF60077088400B9
:100168008317781C83137608800508000130F50092
:10017800790AC0280310F50DFF3E031DBE28750837
:10018800F600770884008317781C831376088006A6
:100198000800831203130C1E0800831603130C1E99
:1001A8000800831203130C12831603176B086A06E0
:1001B800031DE228831603130C1208008316031785
:1001C8006B08CA3E84008317000883120313990042
:1001D8000130F000700883160317EB071F30F0009A
:1001E8007008EB056B086A06031D080083160313E5
:0401F8000C120800DD
:100200000029FF0001308A007F08820706290A12B0
:100210008A11FF290A128A11A62B0A128A11CB2DE4
:100220000A128A11FE290A128A11FF2F8312031360
:10023000E900E701E80108306902031823290030CA
:10024000E800073056290E30690203182D290830BE
:10025000E9020030E800063056291530690203181B
:100260004D290E30E90203306902031C3F29690859
:10027000033A031D43290230E5006508E907003011
:10028000E800053056290730690203185729043061
:10029000E9020030E800093056291D3069020318D0
:1002A00057291530E9020030E8000830E7006808F7
:1002B000670403190800E408031D71290130E500F3
:1002C000690A64290310E50DFF3E031D62296508D4
:1002D000E600670884008317681C8313660880049F
:1002E00008006408013A031D89290130E500690A04
:1002F0007B290310E50DFF3E031D79296508FF3AB0
:10030000E600670884008317681C8313660880056D
:1003100008000130E500690A8F290310E50DFF3E52
:10032000031D8D296508E600670884008317681C93
:10033000831366088006080083120313E8001F1069
:1003400083160313051485140515851609148914DD
:100350000915831203136808013A031DB729F03009
:10036000E6006608831603139F051F14BF29F030AB
:100370008312E6006608831603139F051F080A12FE
:100380008A150F240A128A1183120313B301C7308E
:10039000E60066089F053308E60002300310E60D0C
:1003A000FF3E031DCE290310660D3839E7006708AC
:1003B0009F040C13831603130C17831203131F14CB
:1003C000E9290A128A15F6230A128A11013A031D35
:1003D000EB298B1FE1298B130B13103083120313AE
:1003E000E600E60BF12900008B170B1783120313AD
:1003F0001F15080083120313BC0108000800080041
:10040000233443346F346D346D3461346E3464346A
:1004100020344E346F347434203453347534703493
:1004200070346F347234743465346434003423347B
:100430004C3469346E3465342034533465346E344E
:1004400073346F34723473342034533474346134FD
:1004500074347534733400342334573461346C3459
:100460006C342034533465346E3473346F347234E6
:1004700073342034533474346134743475347334C5
:10048000003423345434653472346D3469346E343A
:10049000613474346F3472342034503472346F34B5
:1004A00062346C3465346D34003423345334743422
:1004B0006F3470342034523469346734683474349F
:1004C00020344D346F3474346F3472340034233438
:1004D000533474346F34703420344C34653466349F
:1004E000743420344D346F3474346F3472340034C7
:1004F0002334523475346E342034523469346734C2
:100500006834743420344D346F3474346F3472343E
:1005100000342334423475346634663465347234BE
:1005200020344F3476346534723466346C346F342E
:10053000773400342334523475346E3420344C34E0
:1005400065346634743420344D346F3474346F340D
:100550007234003423344D346F34763465342034AF
:100560004234613463346B347734613472346434CC
:10057000003423344D346F347634653420344634BB
:100580006F34723477346134723464340034233419
:1005900052346F34743461347434653420345234DA
:1005A00069346734683474340034233452346F341B
:1005B000743461347434653420344C3465346634B6
:1005C0007434003423345434753472346E3420342B
:1005D0005234693467346834743400342334543406
:1005E000753472346E3420344C346534663474346B
:1005F00000342334533474346F3470342034503422
:1006000042346F3474340034433445344E345434FB
:10061000453452340034533449344434453453342B
:100620000034523449344734483454340034463466
:1006300052344F344E34543400344B344E344F34EF
:1006400057344E3400344C3449344E34453400343D
:100650004E344F344E344534003442344F345434E5
:10066000483400344E3455344C344C3400344E3419
:1006700045344134523400344F34563445345234C6
:10068000003472344C34533452340034723457349E
:100690005334523400344C344534463454340034EA
:1006A00072344C345334433400347234573453343A
:1006B000433400346D3446345734443400346D349C
:1006C000423443344B34003463344E345334503466
:1006D00000347334503442345434003472344C3463
:1006E00046345434003474344C3446345434003476
:1006F00072345234473454340034743452344734EE
:100700005434003472344C344D3454340034733423
:100710004C344D3454340034723452344D345434E7
:100720000034733452344D3454340034463441343C
:100730005234003444343034303400344E344F3486
:10074000543400342034003446340034831203130C
:10075000A32CCA017D084A0203181F2C0330FA009B
:100760007A08F0004A080A128A1559240A128A11D6
:10077000023EA03E8400831380080319C12BF401BC
:10078000C32BF401F40A0330FA007A08F000831254
:1007900003134A080A128A1559240A128A11013EC3
:1007A000A03E8400831300080A128A1149200A120D
:1007B0008A110130FA007A0883120313CA07AA2BA0
:1007C000F401F40A8316031321080A128A1149203E
:1007D0000A128A111F2CF401F40A83160313240849
:1007E0000A128A1149200A128A111F2CF401F40AF4
:1007F0008316031327080A128A1149200A128A1144
:100800001F2CF401F40A831603132A080A128A1112
:1008100049200A128A111F2C831203135A08003A26
:100820000319E02B013A0319EB2B033A0319F62BBA
:10083000013A0319012C073A0319A92B1F2C831223
:100840000313C901C90A5A08043A031D402CDA01EE
:10085000831603132208FF3A03193E2C2208FA00DC
:100860007A08F40002300A128A15FD240A128A114D
:10087000831603132208FA007A089F2C8312A72CF0
:100880000130FA007A08DA077D085A020318A52C0D
:100890000330FA007A08F0005A080A128A1559241F
:1008A0000A128A11023EA03E840083130008FF3A18
:1008B0000319A52C0330FA007A08F0008312031301
:1008C0005A080A128A1559240A128A11023EA03EB9
:1008D0008400831300088312031341060319A32C19
:1008E0000330FA007A08F0005A080A128A155924CF
:1008F0000A128A11023EA03E8400831203134103B0
:10090000FF3A83130007FB007B08F40002300A1251
:100910008A15FD240A128A110330FA007A08F000C1
:10092000831203135A080A128A1559240A128A11CB
:10093000023EA03E840083130008FB007B08831264
:100940000313C100BA2CC901BA2C8312031341034B
:10095000FF3AFF3EFA007A08F40002300A128A15C4
:10096000FD240A128A1183120313C1010430FA0014
:100970007A08DA00C908031D0800FD0803190800F9
:100980000C2C572D83120313EA01FF300A128A152B
:10099000F1250A128A117F2D83120313EA01EA0A54
:1009A000FF300A128A15F1250A128A117F2D0A12C8
:1009B0008A1506240A128A1183120313EA01FF30F2
:1009C0000A128A15CA250A128A117F2D831203136F
:1009D000EA01EA0AFF300A128A15CA250A128A11A8
:1009E0007F2D96300A128A158C240A128A117F2DC7
:1009F0004B300A128A158C240A128A117F2D4B3033
:100A00000A128A1511250A128A117F2D96300A12B0
:100A10008A15B1240A128A117F2D96300A128A157E
:100A2000C4240A128A117F2D96300A128A152525B0
:100A30000A128A117F2D96300A128A1539250A1258
:100A40008A117F2D83160313400883120313E901D3
:100A5000E907831603133F0883120313E801E8072D
:100A60000A128A11CA270A128A110230831203134A
:100A70006902EF30031968020318452DFF300A128E
:100A80008A15C4240A128A114B2DFF300A128A15C6
:100A9000B1240A128A110A128A1506240A128A112E
:100AA0007F2D0A128A1506240A128A117F2D8312BD
:100AB00003132608003A0319C22C013A0319CC2C5F
:100AC000033A0319D72C013A0319E62C073A031904
:100AD000F12C013A0319F82C033A0319FF2C013ABF
:100AE0000319062D0F3A03190D2D013A0319142D80
:100AF000033A03191B2D013A0319222D512D831698
:100B00000313400883120313E901E9078316031353
:100B10003F0883120313E801E8070A128A11CA2763
:100B20000A128A110530831203136902DC3003199B
:100B30006802031C08000A128A15AC250A128A11E1
:100B400083120313680883160313BF008312031371
:100B5000690883160313C000C101C2010230EF000F
:100B60006F0883120313E4001C300A128A11162145
:100B70000A128A110B308312031326020318C92D9F
:100B8000013083160313EF006F0883120313A607C7
:100B90000800A6010800962E0330FA007A08F0003B
:100BA000831203135C080A128A1559240A128A1147
:100BB000013E903E840083170003FF3AFA3EFB009B
:100BC0007B08F40002300A128A15FD240A128A11E9
:100BD000F401F40A0330FA007A08F00083120313D8
:100BE0005C080A128A1559240A128A11903E840060
:100BF000831700080A128A11492083120313DD01AA
:100C0000DD0A080008305C0203180B2E0130FA00E0
:100C10007A08DC070C2EDC010330FA007A08F000B9
:100C20005C080A128A1559240A128A11013E903E64
:100C300084003230831700020318532E0330FA0069
:100C40007A08F000831203135C080A128A155924EB
:100C50000A128A11013E903E840083178001FA3007
:100C6000FA007A08F40002300A128A15FD240A12EA
:100C70008A11F401F40A0330FA007A08F0008312B2
:100C800003135C080A128A1559240A128A11903E2D
:100C90008400831700080A128A1149208312031363
:100CA000DD01DD0A08000330FA007A08F000831243
:100CB00003135C080A128A1559240A128A11013E8C
:100CC000903E840083170008FB007B08F40002308C
:100CD0000A128A15FD240A128A11F4010330FA005F
:100CE0007A08F000831203135C080A128A1559244B
:100CF0000A128A11903E8400831700080A128A1192
:100D0000492083120313DD010800FA30FA007A0843
:100D1000F40002300A128A15FD240830FA007A081D
:100D200083120313DC00DD01DD0A080083120313C4
:100D30005D08003A0319CC2D013A0319022E852EC5
:100D4000080083120313EA080030031901308316E8
:100D50000313ED006D0883120313D0006B08831694
:100D60000313ED006D0883120313CF00E401E40ABE
:100D700003300A128A1590270A128A11831203136C
:100D8000E401E40A00300A128A1590270A128A1137
:100D900083120313E401E40A04300A128A1590272F
:100DA0000A128A1183120313E401E40A09300A12B9
:100DB0008A1590270A128A1183120313E401E40AA8
:100DC00005300A128A1590270A128A11831203131A
:100DD000E401E40A0A300A128A1590270A128A11DD
:100DE00083120313E401E40A08300A128A1116215F
:100DF0000A128A1183120313E401E40A01300A1271
:100E00008A1116210A128A1183120313E401E40ADB
:100E100002300A128A1116210A128A118312031350
:100E2000E401E40A0B300A128A1116210A128A110F
:100E300083120313E40108300A128A1590270A125C
:100E40008A1183120313E40101300A128A159027D4
:100E50000A128A1183120313E40102300A128A155E
:100E600090270A128A1183120313E4010B300A122D
:100E70008A159027080083120313060883160313AC
:100E80000605831203132406F0007008C600461EF0
:100E9000662F3808023A031D4F2F061E5B2F3808B5
:100EA000033A031D552F061A5B2F54080A128A11A4
:100EB00001210A128A11EF30F00070088312031327
:100EC000A40506081039F0007008A404C61E852F7A
:100ED0003908023A031D6E2F861E7A2F3908033A0D
:100EE000031D742F861A7A2F55080A128A110121C0
:100EF0000A128A11DF30F000700883120313A40570
:100F000006082039F0007008A404461FA42F3A08F0
:100F1000023A031D8D2F061F992F3A08033A031D2D
:100F2000932F061B992F56080A128A1101210A12C3
:100F30008A11BF30F000700883120313A40506085D
:100F40004039F0007008A404C61FC12F3B08023AC4
:100F5000031DAC2F861FB62F3B08033A031DB22F8B
:100F6000861BB62F57080A128A1101217F30F00024
:100F7000700883120313A40506088039F000700876
:100F8000A404831603130608F000700883120313E9
:100F9000A40508000A128A15EE230A128A11013AE2
:100FA0000319CA2F8B130B13831203136809EA006A
:100FB0006909EB00EA0A0319EB0A0A128A151B24D5
:100FC000831203136A08640783160313ED00831268
:100FD00003136B0803186B0A650783160313EE00EF
:100FE0008B170B176E0883120313E901E9078316A9
:100FF00003136D0883120313E801E80708000800D3
:10100000FF1B0A2883137F1883170008840A03191B
:10101000FF0A08007F087F398A000408840A031940
:04102000FF0A820041
:1017C0000130F000700883120313BC0008000130E0
:1017D00083120313E4006408BD000800831203139E
:1017E0003C08E4006408E500650808008312031360
:1017F0003D08E4006408E500650808006400800115
:10180000840A0406031900340406FF2B0A128A1501
:10181000EA240A128A150A128A15D72408003F30D2
:1018200083120313E40064089F059F1783160313B4
:101830001F179F170800831203132108E701E7070A
:101840002008E601E6076708E501E5076608E40108
:10185000E4070800133413341334133413341334EB
:10186000133407341034043401340834013401349F
:1018700001348B130B13013083120313A0070318D9
:10188000A10A0030A107BC08031D08008B170B1725
:1018900008008B130B13700883120313A20703189D
:1018A000A30A7108A307BC08031D08008B170B17B8
:1018B0000800F300F201731C612C7008F10071083C
:1018C000F2070310F00D0310F30CF308031D5B2C5B
:1018D00072080800F83083120313E40064088316CA
:1018E00003138105011481128111831203138101F5
:1018F0000B118B1608007E088A007F0882007B246B
:101900000A128A158000840A04087D06031900342F
:10191000FF0A0319FE0A7F2C83120313EB00EA016E
:101920006B080A128A15F1250A128A15831203130D
:10193000EA016B080A128A15CA25080083120313EC
:101940003408013A031DAB2C83160313011BAA2C88
:101950000117AB2C0113831251080A128A110121BD
:10196000080083120313EB00EA016B080A128A15C0
:10197000F1250A128A1583120313EA01EA0A6B0899
:101980000A128A15CA25080083120313EB00EA0124
:10199000EA0A6B080A128A15F1250A128A158312BF
:1019A0000313EA016B080A128A15CA25080083127C
:1019B0000313E401E40A0B300A128A1116210A12F9
:1019C0008A1583120313E401E40A02300A128A1111
:1019D0001621080083120313E401E40A08300A12F6
:1019E0008A1116210A128A1583120313E401E40AEC
:1019F00001300A128A1116210800F5007508023A12
:101A0000031D08007408FF3E83160313920083121F
:101A100003138C10831603138C14831203131215F3
:101A2000080083120313EB00EA01EA0A6B080A12AA
:101A30008A15F1250A128A1583120313EA01EA0AAC
:101A40006B080A128A15CA25080083120313EB00DB
:101A5000EA01FF300A128A15F1250A128A1583124B
:101A60000313EA016B03FF3AFF3E0A128A15CA25E7
:101A7000080083120313EB00EA016B03FF3AFF3EF9
:101A80000A128A15F1250A128A1583120313EA0134
:101A9000FF300A128A15CA250800831203130C1C92
:101AA0000800831603130C1C080083120313101084
:101AB000831603130C10831203130C1058080A1218
:101AC0008A1101210800831203138C1C080083165D
:101AD00003138C1C0800831203138C10831603134A
:101AE0008C1083120313121159080A128A11012152
:101AF00008000B1A8B1C842D0B120A128A159E24C7
:101B00000A128A158B100B168B1D08000B1C08007F
:101B10008B110A128A113B270B108B1508008312B8
:101B20000313EA01EB01EB0A00300A128A11A12625
:101B30000A128A150A128A15AC2583120313680843
:101B400083160313BF00831203136908831603135C
:101B5000C000C101C20108000A128A15EE230A1250
:101B60008A15013A0319AC2D8B130B130A128A152F
:101B70001B24831203136508EB01EB076408EA01D9
:101B8000EA078B170B176B08E901E9076A08E801F8
:101B9000E8070800831203136A08013A031DD22DD7
:101BA000E401D62D83120313E401E40A0B300A1278
:101BB0008A1116210A128A15831203136A08013A40
:101BC000031DE92DE401E40A02300A128A111621EC
:101BD000080083120313E40102300A128A1116214D
:101BE0000800831203136A08013A031DF92DE4016A
:101BF000FD2D83120313E401E40A08300A128A114E
:101C000016210A128A15831203136A08013A031D6A
:101C1000102EE401E40A01300A128A11162108008C
:101C200083120313E40101300A128A1116210800FD
:101C30003F308312031385003F3083160313850062
:101C4000831203138601831603138601C0308312A7
:101C50000313870080308316031387000C30831230
:101C6000031388000C308316031388000730831297
:101C700003138900073083160313890008000A1232
:101C80008A1518260A128A150A128A156A240A1257
:101C90008A1500300A128A119C210A128A158B17A4
:101CA0000B170A128A15E7230A128A150A128A15D7
:101CB0008F250A128A150A128A15FB260A128A151E
:101CC0000A128A11C1240A128A155B2E0B1D080004
:101CD0008B1E08000B110030F0000130F1000A12D9
:101CE0008A1549240A128A15CD3083160313D407A6
:101CF0000318D50A0030D50703305502E830031920
:101D00005402031C08000A128A1539240A128A1583
:101D1000E83083160313D4020330031CD503D50225
:101D20007C2E831203138C1E0800831603138C1E53
:101D30000800831203138C121A08F000831603178D
:101D40004808A83E84007008831780004808013EB8
:101D50001F39F000700883120313C700831603179E
:101D60004908831203134706031908004708F000C7
:101D7000700883160317C80008008B130B130A1290
:101D80008A15E0230A128A150A128A1566260A1293
:101D90008A150A128A154D250A128A150A128A1501
:101DA00063250A128A150A128A1591260A128A15C3
:101DB0000A128A1579250A128A150A128A11CD206B
:101DC0000A128A150A128A153C270A128A150A1263
:101DD0008A11FA210A128A158B170B178312031323
:101DE0006308FF0062088A0061088400600E8300B7
:101DF000FE0E7E0E0900831603135308831203138D
:101E0000E901E90783160313520883120313E8015B
:101E1000E8070A128A11CA270A128A1583120313C5
:101E2000690883160313D101D107831203136808CD
:101E300083160313D001D007003051020530031977
:101E40005002031C08000A128A15AC250A128A15D2
:101E500083120313690883160313D301D307831274
:101E60000313680883160313D201D20783120313E6
:101E70001F1908001F150800831203130C1F080008
:101E8000831603130C1F0800831203130C1333086B
:101E9000033A0319562F04303302031C522F330820
:101EA000FF3E532F3308F0007008C200FF30831646
:101EB00003131E05F0000330831203131E05F10007
:101EC0004208F2007207103E8400700883178000F9
:101ED000840A710880000730330203187C2F013018
:101EE000F0007008B3073308033A031D7D2F01305B
:101EF000F0007008B3077D2FB301C730F000700801
:101F00009F053308F00002300310F00DFF3E031D63
:101F1000842F0310700D3839F10071089F040800F8
:101F200083120313E900E701E8010830690203188E
:101F30009D2F0030E8008730D02F0E306902031843
:101F4000A72F0830E9020030E8008630D02F153086
:101F500069020318C72F0E30E90203306902031C1F
:101F6000B92F6908033A031DBD2F0230E50065084B
:101F7000E9070030E8008530D02F073069020318E8
:101F8000D12F0430E9020030E8008930D02F1D3015
:101F900069020318D12F1530E9020030E8008830BB
:101FA000E70068086704031908006408013A031D84
:101FB000EC2F0130E500690ADF2F0310E50DFF3E2D
:101FC000031DDD2F6508E600670884008317681C81
:101FD00083136608800408000130E500690AF22FC7
:101FE0000310E50DFF3E031DF02F6508FF3AE600E4
:101FF000670884008317681C83136608800508003F
:02400E0032FF7F
:00000001FF
