:100000000A128A1112280800FE00030E831203133D
:10001000C5000408C6000A08C7007F08C8000A1205
:100020008A152A2B0A128A1115288313203084007E
:1000300044300A128A152C200A128A11A03084003A
:10004000E6300A128A152C200A128A118317903082
:100050008400E0300A128A152C200A128A1110300E
:10006000840032300A128A152C200A128A11831356
:100070006430FD000830FE004A30FF005730840035
:100080000A128A15BC2083010A128A15F9298312E3
:1000900003130608831603130605831203133006A1
:1000A000F0007008BF003F1E72283708023A031D97
:1000B0005B28061E67283708033A031D6128061AC5
:1000C00067285A080A128A1101210A128A11EF3090
:1000D000F000700883120313B00506081039F00011
:1000E0007008B004BF1E91283808023A031D7A2810
:1000F000861E86283808033A031D8028861A86281B
:100100005B080A128A1101210A128A11DF30F000FD
:10011000700883120313B00506082039F000700838
:10012000B0043F1FB0283908023A031D9928061F62
:10013000A5283908033A031D9F28061BA5285C083B
:100140000A128A1101210A128A11BF30F0007008C8
:1001500083120313B00506084039F0007008B0049C
:10016000BF1FCD283A08023A031DB828861FC228AF
:100170003A08033A031DBE28861BC2285D080A12EE
:100180008A1101217F30F000700883120313B0053B
:1001900006088039F0007008B004831603130608BF
:1001A000F000700883120313B005080083160317CC
:1001B000DE01DF0183120317B001B10183120313C3
:1001C0004C08C9004D08CA00CB010A128A158B25BC
:1001D0008316031318131812981683120313181397
:1001E00018169817831603130C12831203130C129C
:1001F000831603138C16831203138C120800080055
:100200000029FF0001308A007F08820706290A12B0
:100210008A150D280A128A1503290A128A11032841
:100220000A128A11FF2883120313C101023041020E
:10023000031808001C30F7007708F00041080A1284
:100240008A1596200A128A11123EAE3E840083134C
:1002500000080A128A15B7240A128A11F8001C3005
:10026000F9007908F0008312031341080A128A1575
:1002700096200A128A11183EAE3E84007808831335
:1002800080000130F7001C30F8007808F00083127D
:10029000031341080A128A1596200A128A11143E85
:1002A000AE3E8400770883138007662D1C30F7006C
:1002B0007708F0008312031341080A128A1596206A
:1002C0000A128A11183EAE3E840083130008013AD8
:1002D000031D7F290130F7001C30F8007808F0007A
:1002E0008312031341080A128A1596200A128A11F2
:1002F000173EAE3E840077088313800790291C3098
:10030000F7007708F0008312031341080A128A15D8
:1003100096200A128A11173EAE3E84008313800194
:100320001C30F7007708F0008312031341080A120B
:100330008A1596200A128A11173EAE3E84001E309E
:1003400083130002031C8A2D1C30F7007708F0008D
:100350008312031341080A128A1596200A128A1181
:10036000133EAE3E840083138001800A1C30F700E8
:100370007708F0008312031341080A128A159620A9
:100380000A128A11143EAE3E8400831380011C3091
:10039000F7007708F0008312031341080A128A1548
:1003A00096200A128A111A3EAE3E84008313800101
:1003B0001C30F7007708F0008312031341080A127B
:1003C0008A1596200A128A11173EAE3E84008313C6
:1003D00080011C30F7007708F000831203134108F6
:1003E0000A128A1596200A128A11163EAE3E840021
:1003F00083138001E52B1C30F7007708F00083128F
:10040000031341080A128A1596200A128A11193E0E
:10041000AE3E840083130008013A031D492A1C30B4
:10042000F7007708F0008312031341080A128A15B7
:1004300096200A128A11183EAE3E8400831380086B
:10044000031D492A0230F7001C30F8007808F0003C
:100450008312031341080A128A1596200A128A1180
:10046000133EAE3E84007708831380001C30F700F3
:100470007708F0008312031341080A128A159620A8
:100480000A128A11163EAE3E840083138001800A50
:100490008A2D1C30F7007708F000831203134108FF
:1004A0000A128A1596200A128A11143E612D1C30F8
:1004B000F7007708F0008312031341080A128A1527
:1004C00096200A128A11183EAE3E840083138008DB
:1004D000031D7A2A0130F7001C30F8007808F0007C
:1004E0008312031341080A128A1596200A128A11F0
:1004F000163E892A0130F7001C30F8007808F00019
:100500008312031341080A128A1596200A128A11CF
:10051000173EAE3E84007708831380071C30F70037
:100520007708F0008312031341080A128A159620F7
:100530000A128A11143EAE3E840003308313000277
:10054000031C8A2D1C30F7007708F0008312031378
:1005500041080A128A1596200A128A11163EAE3EEA
:10056000840083130008F8001C30F9007908F000BB
:100570008312031341080A128A1596200A128A115F
:10058000173EAE3E840083130008FA0078087A0212
:100590000318DE2A1C30F7007708F00083120313DB
:1005A00041080A128A1596200A128A111A3EAE3E96
:1005B000840083138001800A0330DF2A0530F700AE
:1005C0001C30F8007808F0008312031341080A1267
:1005D0008A1596200A128A11133EAE3E84007708CF
:1005E00083138000012D1C30F7007708F000831280
:1005F000031341080A128A1596200A128A11183E1E
:10060000AE3E840083138008031D162B0130F700D3
:100610001C30F8007808F0008312031341080A1216
:100620008A1596200A128A11163E252B0130F700F2
:100630001C30F8007808F0008312031341080A12F6
:100640008A1596200A128A11173EAE3E840077085A
:10065000831380071C30F7007708F0008312031320
:1006600041080A128A1596200A128A11143EAE3EDB
:100670008400033083130002031CB82B0130F70001
:100680001C30F8007808F0008312031341080A12A6
:100690008A1596200A128A11153EAE3E840077080C
:1006A000831380071C30F7007708F00083120313D0
:1006B00041080A128A1596200A128A11163EAE3E89
:1006C000840083130008F8001C30F9007908F0005A
:1006D0008312031341080A128A1596200A128A11FE
:1006E000173EAE3E840083130008FA0078087A02B1
:1006F0000318812B0F30F700770883120313E105ED
:10070000872BF030F700770883120313E1041C30C5
:10071000F7007708F00041080A128A1596200A129D
:100720008A11143EAE3E8400831380011C30F70012
:100730007708F0008312031341080A128A159620E5
:100740000A128A11173EAE3E8400831380011C30CA
:10075000F7007708F0008312031341080A128A1584
:1007600096200A128A11163EAE3E84008313800141
:100770001C30F7007708F0008312031341080A12B7
:100780008A1596200A128A11153EAE3E8400083062
:10079000831300020318D12B031083120313E10CFF
:1007A0008A2D0430F7001C30F8007808F00083121E
:1007B000031341080A128A1596200A128A11133E61
:1007C000AE3E84007708831380001C30F700770862
:1007D000F0008312031341080A128A1596200A12A8
:1007E0008A11153E612D1C30F7007708F000831246
:1007F000031341080A128A1596200A128A11183E1C
:10080000AE3E840083138008031D162C0130F700D0
:100810001C30F8007808F0008312031341080A1214
:100820008A1596200A128A11163E252C0130F700EF
:100830001C30F8007808F0008312031341080A12F4
:100840008A1596200A128A11173EAE3E8400770858
:10085000831380071C30F7007708F000831203131E
:1008600041080A128A1596200A128A11143EAE3ED9
:100870008400033083130002031C8A2D1C30F70010
:100880007708F0008312031341080A128A15962094
:100890000A128A11173EAE3E840083130008F80046
:1008A0001C30F9007908F0008312031341080A1282
:1008B0008A1596200A128A11163EAE3E84008313D2
:1008C0000008FA0078087A020318DC2C831203135C
:1008D0006108F7001C30F8007808F00041080A129F
:1008E0008A1596200A128A11103EAE3E84001C30F2
:1008F000F9007908F0008312031341080A128A15DF
:1009000096200A128A11AE3E83130007FA007A0875
:100910008400770880001C30F7007708F00083120D
:10092000031341080A128A1596200A128A11103EF2
:10093000AE3E840083130008013E0F39F8007808AA
:1009400083120313C2001C30F7007708F00041083F
:100950000A128A1596200A128A11113EAE3E8400B0
:10096000831300088312031342060319C92C42089B
:10097000F7001C30F8007808F00041080A128A15C8
:1009800096200A128A11103EAE3E84007708831327
:1009900080001C30F7007708F00083120313410831
:1009A0000A128A1596200A128A11133EAE3E84005E
:1009B00083138001800AF02C0530F7001C30F8000A
:1009C0007808F0008312031341080A128A15962052
:1009D0000A128A11133EAE3E84007708831380000A
:1009E0001C30F7007708F0008312031341080A1245
:1009F0008A1596200A128A111A3EAE3E840083138D
:100A000080011C30F7007708F000831203134108BF
:100A10000A128A1596200A128A11143EAE3E8400EC
:100A2000831380011C30F7007708F0008312031352
:100A300041080A128A1596200A128A11173EAE3E04
:100A40008400831380011C30F7007708F0008312C4
:100A5000031341080A128A1596200A128A11163EBB
:100A6000612D1C30F7007708F00083120313410852
:100A70000A128A1596200A128A111B3EAE3E840085
:100A800083138001800A1C30F7007708F00083127E
:100A9000031341080A128A1596200A128A111A3E77
:100AA000AE3E8400831380011C30F7007708F0000D
:100AB0008312031341080A128A1596200A128A111A
:100AC000133EAE3E8400831380018A2D1C30F70054
:100AD0007708F0008312031341080A128A15962042
:100AE0000A128A11133EAE3E840083130008003AB6
:100AF00003195629013A0319FB29033A0319572A06
:100B0000013A0319F32A073A0319F32B013A03199F
:100B1000312D8A2D1C30F7007708F0008312031363
:100B200041080A128A1596200A128A11183EAE3E12
:100B3000840083130008F8001C30F9007908F000E5
:100B40008312031341080A128A1596200A128A1189
:100B5000193EAE3E84007808831380000130F70010
:100B6000770883120313C107162983120313C301E5
:100B700002304302031808001730FA007A08F00028
:100B800043080A128A1596200A128A11163E903ED0
:100B9000840083178008031D652E1730FA007A0839
:100BA000F0008312031343080A128A1596200A12D2
:100BB0008A11103E903E840083170008FB00173016
:100BC000FC007C08F0008312031343080A128A1504
:100BD00096200A128A11113E903E84008317000865
:100BE0007B06031908001730FA007A08F000831218
:100BF000031343080A128A1596200A128A11113E1D
:100C0000903E84001730FB007B08F0008312031332
:100C100043080A128A1596200A128A11903E8317F9
:100C20000007FC007C0884000008FD007D0883129A
:100C30000313E2000130FA001730FB007B08F000DC
:100C400043080A128A1596200A128A11113E903E14
:100C500084007A08831780070F30FA001730FB00F2
:100C60007B08F0008312031343080A128A159620AA
:100C70000A128A11113E903E84007A08831780057B
:100C80001730FA007A08F0008312031343080A129F
:100C90008A1596200A128A11163E903E8400831708
:100CA0008001800A1730FA007A08F00083120313DB
:100CB00043080A128A1596200A128A11133E903EA2
:100CC000840083178001800AC12F0130FA00173099
:100CD000FB007B08F0008312031343080A128A15F5
:100CE00096200A128A11143E903E84007A088317D7
:100CF0008007A02F1730FA007A08F0008312031340
:100D000043080A128A1596200A128A11163E9B2F52
:100D1000F401F40A1730FA007A08F0008312031382
:100D200043080A128A1596200A128A11123E903E32
:100D30008400831700080A128A150C260A128A11E9
:100D40001730FA007A08F0008312031343080A12DE
:100D50008A1596200A128A11143E903E8400831749
:100D600080011730FA007A08F00083120313430859
:100D70000A128A1596200A128A11153E903E8400A6
:100D800083178001F92E83120313621CCD2EF40108
:100D90001730FA007A08F000D52EF401F40A173063
:100DA000FA007A08F0008312031343080A128A1526
:100DB00096200A128A11123E903E84008317000882
:100DC0000A128A150C260A128A110130FA0017300D
:100DD000FB007B08F0008312031343080A128A15F4
:100DE00096200A128A11153E903E84007A088317D5
:100DF00080070330FA001730FB007B08F0008312F5
:100E0000031343080A128A1596200A128A11133E08
:100E1000903E84007A0883178000C12F1730FA00B3
:100E20007A08F0008312031343080A128A159620E9
:100E30000A128A11143E903E840003308317000288
:100E4000031CC12F1730FA007A08F0008312031335
:100E500043080A128A1596200A128A11153E903EFE
:100E600084000830831700020318412F03108312F7
:100E70000313E20C0230FA001730FB007B08F0008D
:100E8000492F0430FA001730FB007B08F000831272
:100E9000031343080A128A1596200A128A11133E78
:100EA000903E84007A08831780001730FA007A0891
:100EB000F0008312031343080A128A1596200A12BF
:100EC0008A11143E9B2FF4011730FA007A08F000C3
:100ED0008312031343080A128A1596200A128A11F4
:100EE000123E903E8400831700080A128A150C26D1
:100EF0000A128A111730FA007A08F00083120313DD
:100F000043080A128A1596200A128A11143E903E4E
:100F10008400033083170002031CC12F1730FA002E
:100F20007A08F0008312031343080A128A159620E8
:100F30000A128A11133E903E840083178001C12F4C
:100F40001730FA007A08F0008312031343080A12DC
:100F50008A1596200A128A11133E903E8400831748
:100F60000008003A03197A2E013A0319882E033A31
:100F70000319C32E013A03190E2F073A0319632FE1
:100F8000C12F0130FA007A0883120313C307B82D6A
:100F900083120313D40054080A128A1549220A1234
:100FA0008A11013A031DFA2F1C3083120313D1005A
:100FB0005108C90054080A128A15DC200A128A1145
:100FC000103EAE3E84008313000883120313D20048
:100FD0001C30D3005308C90054080A128A15DC20BB
:100FE000113EAE3E840083130003FF3A83120313C5
:100FF000520708000030080083120313BB010800E9
:10101A0008000130F000700883120313BB000800B7
:10102A00013083120313C9004908BC000800831267
:10103A0003133B08C9004908CA004A08080083127A
:10104A0003133C08C9004908CA004A08080064009A
:10105A008001840A04060319003404062D28831625
:10106A0003175E08013E1F395F060030031901307D
:10107A0008003F3083120313C90049089F059F17D0
:10108A00831603131F179F170800103410341034E7
:10109A00103410341034103407340D340134FF3452
:1010AA00FF340134831203132108CC01CC07200832
:1010BA00CB01CB074C08CA01CA074B08C901C907AB
:1010CA0008008B130B13013083120313A0070318B4
:1010DA00A10A0030A107BB08031D08008B170B17D4
:1010EA0008008B130B13013083120313A207031892
:1010FA00A30A0030A307BB08031D08008B170B17B0
:10110A0008008B130B13700883120313A407031828
:10111A00A50A7108A507BB08031D08008B170B1742
:10112A000800F200F301721C9E287008F100710891
:10113A00F3070310F00D0310F20CF208031D9828B0
:10114A0073080800F83083120313C900490883168C
:10115A000313810501148112811183120313810182
:10116A000B118B1608007E088A007F088200B820BF
:10117A000A128A158000840A04087D0603190034BD
:10118A00FF0A0319FE0ABC28831203133308013A23
:10119A00031DD62883160313011BD5280117D62849
:1011AA000113831257080A128A11012108008312B7
:1011BA000313CC00CB014C1CE6284908CA004A0894
:1011CA00CB070310C90D0310CC0CCC08031DE02873
:1011DA004B080800F1007108023A031D0800700864
:1011EA00FF3E831603139200831203138C10831697
:1011FA0003138C14831203131215080083120313AA
:10120A002608C4004408F00002300A128A15EF20AA
:10121A000A128A150A128A1113210A128A150A1247
:10122A008A11B525080000300A128A11C8270A1245
:10123A008A1500380319080000300A128A15FC239F
:10124A000A128A150A128A15CB220A128A15182935
:10125A00831203130C1C0800831603130C1C0800CA
:10126A00831203131010831603130C108312031333
:10127A000C105E080A128A11012108008312031356
:10128A008C1C0800831603138C1C0800831203139A
:10129A008C10831603138C108312031312115F0828
:1012AA000A128A11012108000B1A8B1C64290B12DD
:1012BA000A128A15C9200A128A158B100B168B1D61
:1012CA0008000B1C08008B110A128A1147200B1008
:1012DA008B15080083120313CA004A08023A031D39
:1012EA0008004908FF3E8316031392008312031372
:1012FA008C10831603138C1483120313121508001F
:10130A0083120313CB004B08023A031D0800FC307A
:10131A00CA004A08920592148730CA004A08920500
:10132A0012164908CA004A08DF00080080308312F2
:10133A000313CC002530CD000A128A11D6200A12D6
:10134A008A1583120313CF01CF0AD001C030D1000E
:10135A001230D20000300A128A15162708000A1223
:10136A008A151C200A128A15013A0319B4298B130B
:10137A000B130A128A155720831203134A08D00145
:10138A00D0074908CF01CF078B170B175008CE019A
:10139A00CE074F08CD01CD0708003F308312031353
:1013AA0085003F30831603138500831203138601D9
:1013BA00831603138601C03083120313870080301B
:1013CA008316031387000C308312031388000C3032
:1013DA00831603138800073083120313890007302A
:1013EA0083160313890008000A128A15D2210A12E9
:1013FA008A150A128A15A7200A128A1500300A12BB
:10140A008A1559240A128A158B170B170A128A157C
:10141A0015200A128A150A128A159B210A128A15A0
:10142A000A128A159E220A128A150A128A15182188
:10143A000A128A15152A0A128A151C200A128A15F6
:10144A00013A0319202A8B130B13831203134D0934
:10145A00CF004E09D000CF0A0319D00A0A128A1502
:10146A005720831203134F084907D1005008031865
:10147A00500A4A07D2008B170B175208CE01CE0723
:10148A005108CD01CD07080083120313D0001C3088
:10149A00CD004D08C90050080A128A15DC200A122C
:1014AA008A15113EAE3E840083130008831203138B
:1014BA00CE001C30CF004F08C90050080A128A1506
:1014CA00DC20103EAE3E840083130008831203130F
:1014DA004E060030031D01300800831203138C1ED0
:1014EA000800831603138C1E0800831203138C1240
:1014FA001A08F000831203173008103E840070089F
:10150A00831780003008013E1F39F00070088312EB
:10151A000313C00083120317310883120313400612
:10152A00031908004008F000700883120317B0007E
:10153A000800831203132B08CE01CE072A08CD0117
:10154A00CD070A128A1520220A128A15831203135A
:10155A004E08A901A9074D08A801A80700302902C9
:10156A00053003192802031C08000A128A15B4213F
:10157A000A128A15831203134E08AB01AB074D08F2
:10158A00AA01AA071F1908001F15080083120313CE
:10159A00CA000A128A1534200A128A150038031D55
:1015AA00CE2A831603130C12831203134A08C900A6
:1015BA00831603175E08BE3E84008312031349088C
:1015CA00831780000130C900490883160317DE0714
:1015DA001F3083120313C900490883160317DE0557
:1015EA00831603130C160800831203130C1E08003B
:1015FA00831603130C1E0800831203130C1283169E
:10160A0003175F085E06031D0E2B831603130C12C5
:10161A000800831603175F08BE3E8400831700087C
:10162A008312031399000130F00070088316031720
:10163A00DF071F30F0007008DF055F085E06031D34
:10164A000800831603130C1208008B130B130A12DB
:10165A008A150E200A128A150A128A1568230A1296
:10166A008A150A128A152D210A128A150A128A1552
:10167A0043210A128A150A128A1572220A128A1537
:10168A000A128A1559210A128A150A128A15F9228A
:10169A000A128A150A128A15A8230A128A150A1228
:1016AA008A11FC270A128A158B170B178312031348
:1016BA004808FF0047088A0046088400450E830050
:1016CA00FE0E7E0E09000B1D08008B1E08000B1172
:1016DA000030F0000130F1000A128A1586200A1241
:1016EA008A15CD3083120313AE070318AF0A0030F0
:1016FA00AF0703302F02E83003192E02031C992B7F
:10170A000A128A1566200A128A15E8308312031310
:10171A00AE020330031CAF03AF020130AC0703185B
:10172A00AD0A0030AD077E2B03302D02E8300319D5
:10173A002C02031C08000A128A157620831203134E
:10174A00AC01AD010800831203130C1F08008316B5
:10175A0003130C1F0800831203130C133208033AF5
:10176A000319C22B04303202031CBE2B3208FF3E7F
:10177A00BF2B3208F0007008BE00FF308316031337
:10178A001E05F0000330831203131E05F1003E0804
:10179A00F2007207A03E8400700883138000840A56
:1017AA0071088000073032020318E82B0130F0007C
:1017BA007008B2073208033A031DE92B0130F00022
:1017CA007008B207E92BB201C730F00070089F0514
:1017DA003208F00002300310F00DFF3E031DF02B1B
:1017EA000310700D3839F10071089F040800831244
:1017FA000313D60056080A128A1549220A128A15B4
:10180A000038031D0A2C003008001C308312031311
:10181A00D1005108C90056080A128A15DC200A129A
:10182A008A15113EAE3E84001C3083120313D20087
:10183A005208C90056080A128A15DC200A128A15AB
:10184A00AE3E8313000783120313D30053088400A8
:10185A000008D4005408D5000130D1001C30D20051
:10186A005208C90056080A128A15DC200A128A157B
:10187A00113EAE3E8400831203135108831380077E
:10188A000F30D1001C30D2005208C90056080A1283
:10189A008A15DC20113EAE3E8400831203135108E0
:1018AA00831380055508080083120313CD001F1007
:1018BA00831603130514851405158516091489144E
:1018CA000915831203134D08013A031D742CF030D5
:1018DA00CB004B08831603139F051F147C2CF03092
:1018EA008312CB004B08831603139F051F080A12A5
:1018FA008A153E200A128A1583120313B201C730D1
:10190A00CB004B089F053208CB0002300310CB0DE9
:10191A00FF3E031D8B2C03104B0D3839CC004C08AD
:10192A009F040C13831603130C17831203131F143B
:10193A00A62C0A128A1524200A128A15013A031DB6
:10194A00A82C8B1F9E2C8B130B131030831203139E
:10195A00CB00CB0BAE2C00008B170B178312031393
:10196A001F150800F600F401F50108307602031885
:10197A00C22C0030F5000730F52C0E307602031821
:10198A00CC2C0830F6020030F5000630F52C153064
:10199A0076020318EC2C0E30F60203307602031C92
:1019AA00DE2C7608033A031DE22C0230F0007008A0
:1019BA00F6070030F5000530F52C073076020318DB
:1019CA00F62C0430F6020030F5000930F52C1D30F3
:1019DA0076020318F62C1530F6020030F5000830AE
:1019EA00F400750874040319192D0130F000760A01
:1019FA00002D0310F00DFF3E031DFE2C7008F100B0
:101A0A007108F300740884008317751C8313000897
:101A1A007305F0007008F20073087206031D172D93
:101A2A000130080000300800003008008312031358
:101A3A00CE00CC01CD0108304E020318282D00300B
:101A4A00CD0087305B2D0E304E020318322D083040
:101A5A00CE020030CD0086305B2D15304E020318C1
:101A6A00522D0E30CE0203304E02031C442D4E0876
:101A7A00033A031D482D0230CA004A08CE07003037
:101A8A00CD0085305B2D07304E0203185C2D0430E3
:101A9A00CE020030CD0089305B2D1D304E02031876
:101AAA005C2D1530CE020030CD008830CC004D08B8
:101ABA004C04031908004908013A031D772D013027
:101ACA00CA004E0A6A2D0310CA0DFF3E031D682D77
:101ADA004A08CB004C08840083174D1C83134B081B
:101AEA00800408000130CA004E0A7D2D0310CA0D79
:101AFA00FF3E031D7B2D4A08FF3ACB004C088400A9
:101B0A0083174D1C83134B0880050800C22D8316CA
:101B1A00031318158130990008008316031318154A
:101B2A001430990008008316031318150A30990017
:101B3A00080083160313181540309900080083160D
:101B4A00031318114030990008008316031318155F
:101B5A002030990008008316031318118130990068
:101B6A000800831603131811FF3099000800831622
:101B7A0003131815813099000800831203134B08C8
:101B8A00003A0319C92DBC2D4A08043A0319E32D5A
:101B9A000D3A0319E82D1B3A0319ED2D373A0319AB
:101BAA00F22D6E3A0319F72DDD3A0319FC2D543A3A
:101BBA000319012E233A0319062EBC2D4908B03AFF
:101BCA000319B62DBC2D4908603A0319B02DBC2D56
:101BDA004908C03A0319A42DBC2D4908803A0319B3
:101BEA008C2DBC2D4908003A03199E2DBC2D49089D
:101BFA00003A0319AA2DBC2D4908003A0319982D59
:101C0A00BC2D4908003A0319922DBC2D0800F90091
:101C1A00F701F801083079020318172E0030F8008E
:101C2A0007304A2E0E3079020318212E0830F902A5
:101C3A000030F80006304A2E153079020318412E7A
:101C4A000E30F90203307902031C332E7908033A65
:101C5A00031D372E0230F5007508F9070030F80029
:101C6A0005304A2E0730790203184B2E0430F90248
:101C7A000030F80009304A2E1D30790203184B2E25
:101C8A001530F9020030F8000830F70078087704B8
:101C9A0003190800F408031D652E0130F500790ABE
:101CAA00582E0310F50DFF3E031D562E7508F6003B
:101CBA00770884008317781C831376088004080049
:101CCA007408013A031D7D2E0130F500790A6F2E42
:101CDA000310F50DFF3E031D6D2E7508FF3AF60041
:101CEA00770884008317781C831376088005080018
:101CFA000130F500790A832E0310F50DFF3E031D0E
:101D0A00812E7508F600770884008317781C8313E0
:101D1A0076088006080083120313CE00CC01CD0199
:101D2A0008304E0203189D2E0030CD000730D02E09
:101D3A000E304E020318A72E0830CE020030CD0016
:101D4A000630D02E15304E020318C72E0E30CE02A2
:101D5A0003304E02031CB92E4E08033A031DBD2E52
:101D6A000230CA004A08CE070030CD000530D02E16
:101D7A0007304E020318D12E0430CE020030CD00B7
:101D8A000930D02E1D304E020318D12E1530CE0246
:101D9A000030CD000830CC004D084C04031908006F
:101DAA00C908031DEB2E0130CA004E0ADE2E0310AD
:101DBA00CA0DFF3E031DDC2E4A08CB004C088400E6
:101DCA0083174D1C83134B08800408004908013A05
:101DDA00031D032F0130CA004E0AF52E0310CA0D47
:101DEA00FF3E031DF32E4A08FF3ACB004C0884003D
:101DFA0083174D1C83134B08800508000130CA0065
:101E0A004E0A092F0310CA0DFF3E031D072F4A0869
:101E1A00CB004C08840083174D1C83134B088006A3
:101E2A00080083120313D5001730D3005308C900E2
:101E3A0055080A128A15DC200A128A15103E903EAD
:101E4A00840083178001173083120313D3005308C9
:101E5A00C90055080A128A15DC200A128A15113E91
:101E6A00903E840083178001831203134F08D30026
:101E7A001730D4005408C90055080A128A15DC2004
:101E8A000A128A15123E903E8400831203135308E5
:101E9A00831780001730D3005308C90055080A1267
:101EAA008A15DC200A128A15133E903E8400831795
:101EBA00800183120313C9014F080A128A151B25D0
:101ECA000A128A1583120313C9014F080A128A15C6
:101EDA0090260A128A151C3083120313D300530862
:101EEA00C90055080A128A15DC200A128A15103E02
:101EFA00AE3E8400831380011C3083120313D30087
:101F0A005308C90055080A128A15DC200A128A15D4
:101F1A00113EAE3E840083138001831203135008DE
:101F2A00D3001C30D4005408C90055080A128A1577
:101F3A00DC200A128A15123EAE3E84008312031375
:101F4A005308831380001C30D3005308C900550876
:101F5A000A128A15DC200A128A15183EAE3E84003F
:101F6A0083138001800A1C3083120313D3005308A1
:101F7A00C90055080A128A15DC200A128A15193E68
:101F8A00AE3E840083138001800A1C30831203133F
:101F9A00D3005308C90055080A128A15DC200A1210
:101FAA008A15133EAE3E8400831380018312031305
:101FBA00C901C90A50080A128A151B250A128A156C
:101FCA000E3083120313A6000030A7000A30D30094
:101FDA005308C90002300A128A1585210A128A1585
:101FEA00831203132608D3005308C90002300A12C9
:061FFA008A156F210800AA
:02400E0032FF7F
:00000001FF
