:100000000A128A1112280800FE00030E831203133D
:10001000CA000408CB000A08CC007F08CD000A12F1
:100020008A15CC290A128A15B628831203130608EA
:10003000831603130605831203133006F0007008BD
:10004000BF003F1E2428252851283708023A031DE7
:100050002A282B283128061A2E282F28312845280F
:1000600045283708033A031D362837283D28061E41
:100070003A283B283D28452845285C080A128A1161
:1000800001210A128A1145284528EF30F000700836
:1000900083120313B00506081039F0007008B0048D
:1000A0005128BF1E5428552881283808023A031DBC
:1000B0005A285B286128861A5E285F2861287528DF
:1000C00075283808033A031D662867286D28861EA0
:1000D0006A286B286D28752875285D080A128A1110
:1000E00001210A128A1175287528DF30F000700886
:1000F00083120313B00506082039F0007008B0041D
:1001000081283F1F84288528B1283908023A031D19
:100110008A288B289128061B8E288F289128A528AD
:10012000A5283908033A031D962897289D28061FFD
:100130009A289B289D28A528A5285E080A128A11BE
:1001400001210A128A11A528A528BF30F0007008E5
:1001500083120313B00506084039F0007008B0049C
:10016000B128BF1FB428B528E1283A08023A031D78
:10017000BA28BB28C128861BBE28BF28C128D5287D
:10018000D5283A08033A031DC628C728CD28861F5C
:10019000CA28CB28CD28D528D5285F080A128A116D
:1001A00001210A128A11D528D5287F30F000700865
:1001B00083120313B00506088039F0007008B004FC
:1001C000E128831603130608F00070088312031356
:1001D000B0050800831203133308013A031DF12808
:1001E000F228F7284030831603138106F72883127C
:1001F00059080A128A1101210A128A1108000800FE
:100200000029FF0001308A007F08820706290A12B0
:100210008A1103280A128A11FF280A168A11B12EA0
:100220000A128A11FF2F83120313C1010230410207
:10023000031C1B291C291E295E2E5E2E1C30F70074
:100240007708F00041080A168A11C8260A128A1196
:10025000123EAE3E8400831300080A128A116D27F5
:100260000A128A11F8001C30F9007908F000831294
:10027000031341080A168A11C8260A128A11183E69
:10028000AE3E84007808831380000130F7001C30F4
:10029000F8007808F0008312031341080A168A1147
:1002A000C8260A128A11143EAE3E840077088313D2
:1002B0008007092E1C30F7007708F0008312031323
:1002C00041080A168A11C8260A128A11183EAE3E43
:1002D000840083130008013A031D6F2970298529C2
:1002E0000130F7001C30F8007808F0008312031387
:1002F00041080A168A11C8260A128A11173EAE3E14
:10030000840077088313800796291C30F70077084C
:10031000F0008312031341080A168A11C8260A1234
:100320008A11173EAE3E8400831380011C30F70013
:100330007708F0008312031341080A168A11C826B1
:100340000A128A11173EAE3E84001E30831300024B
:10035000031CAB29AC292D2E1C30F7007708F000C8
:100360008312031341080A168A11C8260A128A1139
:10037000133EAE3E840083138001800A1C30F700D8
:100380007708F0008312031341080A168A11C82661
:100390000A128A11143EAE3E8400831380011C3081
:1003A000F7007708F0008312031341080A168A1138
:1003B000C8260A128A111A3EAE3E840083138001B9
:1003C0001C30F7007708F0008312031341080A1667
:1003D0008A11C8260A128A11173EAE3E8400831382
:1003E00080011C30F7007708F000831203134108E6
:1003F0000A168A11C8260A128A11163EAE3E8400D9
:10040000831380011C30F7007708F0008312031378
:1004100041080A168A11C8260A128A11153EAE3EF4
:100420008400831380012D2E2D2E1C30F7007708B9
:10043000F0008312031341080A168A11C8260A1213
:100440008A11193EAE3E840083130008013A031D51
:100450002A2A2B2A672A1C30F7007708F00083121B
:10046000031341080A168A11C8260A128A11183E77
:10047000AE3E840083138008031D3F2A402A672A6A
:100480000230F7001C30F8007808F00083120313E4
:1004900041080A168A11C8260A128A11133EAE3E76
:1004A00084007708831380001C30F7007708F00081
:1004B0008312031341080A168A11C8260A128A11E8
:1004C000163EAE3E840083138001800A2D2E1C3020
:1004D000F7007708F0008312031341080A168A1107
:1004E000C8260A128A11143EAE3E8400831380018E
:1004F0002D2E2D2E1C30F7007708F00083120313E9
:1005000041080A168A11C8260A128A11183EAE3E00
:10051000840083138008031D8E2A8F2AA42A0130A9
:10052000F7001C30F8007808F0008312031341082C
:100530000A168A11C8260A128A11163EAE3E840097
:10054000770883138007B82A0130F7001C30F800C1
:100550007808F0008312031341080A168A11C8268E
:100560000A128A11173EAE3E840077088313800773
:100570001C30F7007708F0008312031341080A16B5
:100580008A11C8260A128A11143EAE3E8400033036
:1005900083130002031CCD2ACE2A2D2E1C30F70017
:1005A0007708F0008312031341080A168A11C8263F
:1005B0000A128A11163EAE3E840083130008F8002A
:1005C0001C30F9007908F0008312031341080A1661
:1005D0008A11C8260A128A11173EAE3E8400831380
:1005E0000008FA0078087A020318F72AF82A1F2B65
:1005F0001C30F7007708F0008312031341080A1635
:100600008A11C8260A128A111A3EAE3E840083134C
:100610008001800A0330F7001C30F8007808F000F1
:100620008312031341080A168A11C8260A128A1176
:10063000133EAE3E8400770883138000332B0530D1
:10064000F7001C30F8007808F0008312031341080B
:100650000A168A11C8260A128A11133EAE3E840079
:100660007708831380001C30F7007708F0008312AE
:10067000031341080A168A11C8260A128A11143E69
:10068000AE3E8400831380011C30F7007708F00031
:100690008312031341080A168A11C8260A128A1106
:1006A000173EAE3E8400831380011C30F7007708AC
:1006B000F0008312031341080A168A11C8260A1291
:1006C0008A11163EAE3E8400831380012D2E2D2EFE
:1006D0001C30F7007708F0008312031341080A1654
:1006E0008A11C8260A128A11183EAE3E840083136E
:1006F0008008031D7C2B7D2B922B0130F7001C30D2
:10070000F8007808F0008312031341080A168A11D2
:10071000C8260A128A11163EAE3E8400770883135B
:100720008007A62B0130F7001C30F8007808F00095
:100730008312031341080A168A11C8260A128A1165
:10074000173EAE3E84007708831380071C30F70005
:100750007708F0008312031341080A168A11C8268D
:100760000A128A11143EAE3E840003308313000245
:10077000031CBB2BBC2B3A2C0130F7001C30F800BB
:100780007808F0008312031341080A168A11C8265C
:100790000A128A11153EAE3E840077088313800743
:1007A0001C30F7007708F0008312031341080A1683
:1007B0008A11C8260A128A11163EAE3E840083139F
:1007C0000008F8001C30F9007908F00083120313C8
:1007D00041080A168A11C8260A128A11173EAE3E2F
:1007E000840083130008FA0078087A020318F92BB2
:1007F000FA2B012C0F30F700770883120313E3055F
:10080000082CF030F700770883120313E304082C58
:100810001C30F7007708F00041080A168A11C82634
:100820000A128A11143EAE3E8400831380011C30EC
:10083000F7007708F0008312031341080A168A11A3
:10084000C8260A128A11173EAE3E84008313800127
:100850001C30F7007708F0008312031341080A16D2
:100860008A11C8260A128A11163EAE3E84008313EE
:1008700080013A2C1C30F7007708F0008312031334
:1008800041080A168A11C8260A128A11153EAE3E80
:10089000840008308313000203184F2C502C552C71
:1008A000031083120313E30C2D2E0430F7001C30C9
:1008B000F8007808F0008312031341080A168A1121
:1008C000C8260A128A11133EAE3E840077088313AD
:1008D00080001C30F7007708F000831203134108F2
:1008E0000A168A11C8260A128A11153EAE3E8400E5
:1008F000831380012D2E2D2E1C30F7007708F00079
:100900008312031341080A168A11C8260A128A1193
:10091000183EAE3E840083138008031D902C912C5A
:10092000A62C0130F7001C30F8007808F000831284
:10093000031341080A168A11C8260A128A11163EA4
:10094000AE3E8400770883138007BA2C0130F7008D
:100950001C30F8007808F0008312031341080A16CF
:100960008A11C8260A128A11173EAE3E8400770803
:10097000831380071C30F7007708F00083120313FD
:1009800041080A168A11C8260A128A11143EAE3E80
:100990008400033083130002031CCF2CD02C2D2E97
:1009A0001C30F7007708F0008312031341080A1681
:1009B0008A11C8260A128A11173EAE3E840083139C
:1009C0000008F8001C30F9007908F00083120313C6
:1009D00041080A168A11C8260A128A11163EAE3E2E
:1009E000840083130008FA0078087A020318F92CAF
:1009F000FA2C782D831203136308F7001C30F800DB
:100A00007808F00041080A168A11C8260A128A11CD
:100A1000F900AE307907FA001C30FB007B08F000CB
:100A20008312031341080A168A11C8260A128A1172
:100A3000103EAE3E8400831300087A07FC007C0859
:100A40008400770880001C30F7007708F0008312DC
:100A5000031341080A168A11C8260A128A11103E89
:100A6000AE3E840083130008013E0F39F800780879
:100A700083120313C2001C30F7007708F00041080E
:100A80000A168A11C8260A128A11113EAE3E840047
:100A9000831300088312031342060319502D512DAE
:100AA000652D4208F7001C30F8007808F000410876
:100AB0000A168A11C8260A128A11103EAE3E840018
:100AC000770883138000652D652D1C30F7007708AB
:100AD000F0008312031341080A168A11C8260A126D
:100AE0008A11133EAE3E840083138001800A8C2D50
:100AF0000530F7001C30F8007808F000831203136B
:100B000041080A168A11C8260A128A11133EAE3EFF
:100B100084007708831380001C30F7007708F0000A
:100B20008312031341080A168A11C8260A128A1171
:100B30001A3EAE3E8400831380011C30F700770814
:100B4000F0008312031341080A168A11C8260A12FC
:100B50008A11143EAE3E8400831380011C30F700DE
:100B60007708F0008312031341080A168A11C82679
:100B70000A128A11173EAE3E8400831380011C3096
:100B8000F7007708F0008312031341080A168A1150
:100B9000C8260A128A11163EAE3E840083138001D5
:100BA0002D2E2D2E1C30F7007708F0008312031332
:100BB00041080A168A11C8260A128A111B3EAE3E47
:100BC000840083138001800A1C30F7007708F0004E
:100BD0008312031341080A168A11C8260A128A11C1
:100BE0001A3EAE3E8400831380011C30F700770864
:100BF000F0008312031341080A168A11C8260A124C
:100C00008A11133EAE3E8400831380012D2E2D2EBB
:100C10002D2E1C30F7007708F000831203134108D3
:100C20000A168A11C8260A128A11133EAE3E8400A3
:100C300083130008003A03195A29013A0319152AA7
:100C4000033A03197A2A013A0319682B073A031960
:100C50007C2C013A0319D22D2D2E1C30F700770879
:100C6000F0008312031341080A168A11C8260A12DB
:100C70008A11183EAE3E840083130008F8001C3031
:100C8000F9007908F0008312031341080A168A114B
:100C9000C8260A128A11193EAE3E840078088313D2
:100CA00080000130F700770883120313C107023078
:100CB0004102031C5C2E5D2E1E295E2E080083124D
:100CC0000313D800173083160313E6006608831257
:100CD0000313CE0058080A168A11F8260A128A1140
:100CE000103E903E84008317800117308316031353
:100CF000E600660883120313CE0058080A168A110C
:100D0000F8260A128A11113E903E84008317800152
:100D100083120313540883160313E6001730E70009
:100D2000670883120313CE0058080A168A11F826A2
:100D30000A128A11123E903E84008316031366083D
:100D4000831780001730E600660883120313CE0075
:100D500058080A168A11F8260A128A11133E903E84
:100D600084008317800183120313CE0154080A12F2
:100D70008A1594230A128A1183120313CE01540890
:100D80000A128A15D9240A128A111C3083160313F9
:100D9000E600660883120313CE0058080A168A116B
:100DA000F8260A128A11103EAE3E84008313800199
:100DB0001C3083160313E600660883120313CE006B
:100DC00058080A168A11F8260A128A11113EAE3EF8
:100DD00084008313800183120313550883160313C1
:100DE000E6001C30E700670883120313CE005808A2
:100DF0000A168A11F8260A128A11123EAE3E8400A3
:100E0000831603136608831380001C30E60066080F
:100E100083120313CE0058080A168A11F8260A1204
:100E20008A11183EAE3E840083138001800A1C3074
:100E300083160313E600660883120313CE005808D6
:100E40000A168A11F8260A128A11193EAE3E84004B
:100E500083138001800A1C3083160313E6006608A2
:100E600083120313CE0058080A168A11F8260A12B4
:100E70008A11133EAE3E8400831380018312031354
:100E8000CE01CE0A55080A128A1594230A128A1135
:100E90000E3083120313AA000030AB000730831614
:100EA0000313E600660883120313CE0002300A160D
:100EB0008A112C270A128A11831203132A08831617
:100EC0000313E600660883120313CE0002300A16ED
:100ED0008A1112270A128A110800F600F401F5019E
:100EE000083076020318752F762F7B2F0030F5001F
:100EF0000730F400CC2F0E3076020318802F812F9C
:100F0000882F0830F6020030F5000630F400CC2FB0
:100F10001530760203188D2F8E2FBB2F0E30F60260
:100F2000033076020318952F962F9B2F0030F50083
:100F30000530F400CC2F7608033A031DA02FA12F13
:100F4000AA2F0230F0007008F6070030F5000530D7
:100F5000F400CC2F073076020318AF2FB02FCC2F20
:100F60000430F6020030F5000930F400CC2FCC2F0D
:100F7000CC2FCC2FCC2F1D3076020318C02FC12FC1
:100F8000CC2F1530F6020030F5000830F400CC2FDD
:100F9000CC2FCC2FCC2FCC2F750874040319D12F54
:100FA000D22FF72F0130F000760AD82F0310F00D62
:100FB000FF3E031DD62F7008F1007108F30074087E
:100FC00084008317751C831300087305F0007008F4
:100FD000F20073087206031DEE2FEF2FF32F01307E
:100FE000FA2FFA2FFA2F0030FA2FFA2FFA2F0030AB
:100FF000FA2FFA2F080083120313BB010800080020
:10100A003F308312031385003F3083160313850094
:10101A00831203138601831603138601C0308312D9
:10102A000313870080308316031387000C30831262
:10103A00031388000C3083160313880007308312C9
:10104A0003138900073083160313890008000A1264
:10105A008A1505200A128A150A168A1167260A12A3
:10106A008A1500300A128A1553220A128A158B171A
:10107A000B170A168A111D260A128A150A168A11D0
:10108A009B270A128A1549280A168A1146270A1224
:10109A008A150A128A150A220A128A154928492823
:1010AA000A128A11122883120313D5001730D200AC
:1010BA005208CE0055080A168A11F8260A128A150D
:1010CA00113E903E84008317000883120313D30055
:1010DA001730D4005408CE0055080A168A11F8268B
:1010EA000A128A15103E903E840083170008013EBA
:1010FA000F39831203135306003003190130852870
:10110A000800882888280A168A1135260A128A159C
:10111A00013A03199128922888288B130B138312FA
:10112A0003135209D4005309D500D40A0319D50A66
:10113A000A168A1157260A128A15831203135408AB
:10114A004E07D60055080318550A4F07D7008B17C4
:10115A000B175708D301D3075608D201D207B5286F
:10116A00080083132030840044300A168A1124268A
:10117A000A128A15A0308400E6300A168A1124263B
:10118A000A128A15831790308400E0300A168A11F1
:10119A0024260A128A151030840032300A168A115F
:1011AA0024260A128A1583136630FD001630FE00C3
:1011BA004A30FF00593084000A168A11A2260A1200
:1011CA008A1583010A128A152C28831203138C1E8E
:1011DA00EF28F0281E29831603138C1EF528F628FB
:1011EA001E29831203138C121A08F00083120317A4
:1011FA003008103E84007008831780003008013ED2
:10120A001F39F000700883120313C00083120317FA
:10121A0031088312031340060319142915291E29BC
:10122A004008F000700883120317B0001E291E2917
:10123A001E2908000B1D2229232953298B1E262922
:10124A00272953290B110030F0000130F1000A164A
:10125A008A118B260A128A15CD3083120313AE0720
:10126A000318AF0A0030AF0748290A168A117826F0
:10127A000A128A15E83083120313AE020330031CE4
:10128A00AF03AF02482903302F02E83003192E02B8
:10129A000318502951293A2953295329080083123E
:1012AA0003130C1E59295A298F29831603130C1E5E
:1012BA005F2960298F29831203130C1283160317DF
:1012CA005F085E06031D6A296B296F2983160313BB
:1012DA000C128F29831603175F08BE3E84008317FA
:1012EA0000088312031399000130F0007008831676
:1012FA000317DF071F30F0007008DF055F085E067E
:10130A00031D882989298F29831603130C128F2913
:10131A008F298F29080083160313ED00B42983123D
:10132A00580884000A168A1100200A128A158316A0
:10133A000313EC006C0883120313D60083160313FD
:10134A006D080A128A1523230A128A150130831698
:10135A000313EC006C0883120313D807B429831211
:10136A00580884000A168A1100200A128A150038C1
:10137A00031DC029C1299429C229D6018316031342
:10138A006D080A128A1523230A128A1508008B137C
:10139A000B130A168A1116260A128A150A128A15B8
:1013AA001F210A128A150A168A117E270A128A151D
:1013BA000A168A1161270A128A150A128A15EA2060
:1013CA000A128A150A168A11B8270A128A150A12E7
:1013DA008A1554210A128A150A128A15B9220A1282
:1013EA008A150A128A11FB270A128A158B170B17FC
:1013FA00831203134D08FF004C088A004B0884002F
:10140A004A0E8300FE0E7E0E090083120313210882
:10141A00D301D3072008D201D2070A128A158620DF
:10142A000A128A15831203135308A301A307520849
:10143A00A201A20703302302E83003192202031C87
:10144A00272A282A522A0A168A11DB270A128A15FB
:10145A00831203135308A101A1075208A001A00790
:10146A00013083160313EE006E0883120313D800AB
:10147A0000300A128A1590210A128A150A30831638
:10148A000313EE006E0883120313D60000300A120B
:10149A008A1523230A128A15522A08008312031373
:1014AA00D2001F108316031305148514051585161B
:1014BA00091489140915831203135208013A031DEA
:1014CA00672A682A702AF030D0005008831603135E
:1014DA009F051F14792AF0308312D0005008831612
:1014EA0003139F051F08792A0A168A113E260A1233
:1014FA008A1583120313B201C730D00050089F0522
:10150A003208D00002300310D00DFF3E031D882A96
:10151A000310500D3839D10051089F040C1383165B
:10152A0003130C17831203131F149B2A8B1B9E2A67
:10153A009F2AAA2A0A168A112C260A128A15013A01
:10154A000319A82AA92A9B2AAA2A8B130B1310303B
:10155A0083120313D000D00BB02A00008B170B178D
:10156A00831203131F150800831203130C1FBE2ACC
:10157A00BF2A222B831603130C1FC42AC52A222B27
:10158A00831203130C133208033A031DCD2ACE2A01
:10159A00D02AE22AE22A04303202031CD52AD62AA9
:1015AA00DC2A3208FF3EF0007008BE00E22A320848
:1015BA00F0007008BE00E22AE22AFF308316031305
:1015CA001E05F0000330831203131E05F1003E08C6
:1015DA00F2007207A03E8400700883138000840A18
:1015EA0071088000073032020318FC2AFD2A0D2BED
:1015FA000130F0007008B2073208033A031D062BC7
:10160A00072B0F2B0130F0007008B2070F2B0F2B9E
:10161A00B2010F2BC730F00070089F053208F000A6
:10162A0002300310F00DFF3E031D162B0310700D40
:10163A003839F10071089F04222B08008312031322
:10164A00D700282B282B8312031357080A128A154E
:10165A0058200A128A150038031D342B352B282BE3
:10166A00362B83120313560883160313E60017302A
:10167A00E700670883120313CE0057080A168A1177
:10168A00F8260A128A1583160313E80090306807B1
:10169A00E9001730EA006A0883120313CE005708DC
:1016AA000A168A11F8260A128A15103E903E8400FC
:1016BA0083170008831603136907EB006B0884007D
:1016CA00660880000130E6001730E70067088312D9
:1016DA000313CE0057080A168A11F8260A128A1529
:1016EA00103E903E84008316031366088317800712
:1016FA000F30E6001730E700670883120313CE00A5
:10170A0057080A168A11F8260A128A15103E903EC0
:10171A008400831603136608831780050800831262
:10172A000313D300D101D2010830530203189E2BB0
:10173A009F2BA42B0030D2008730D100F52B0E301E
:10174A0053020318A92BAA2BB12B0830D30200305D
:10175A00D2008630D100F52B153053020318B62B70
:10176A00B72BE42B0E30D302033053020318BE2BDF
:10177A00BF2BC42B0030D2008530D100F52B530883
:10178A00033A031DC92BCA2BD32B0230CF004F08B3
:10179A00D3070030D2008530D100F52B0730530231
:1017AA000318D82BD92BF52B0430D3020030D200E2
:1017BA008930D100F52BF52BF52BF52BF52B1D30A8
:1017CA0053020318E92BEA2BF52B1530D30200300C
:1017DA00D2008830D100F52BF52BF52BF52BF52B04
:1017EA00520851040319FA2BFB2B2A2C4E08013AF2
:1017FA00031D002C012C142C0130CF00530A072C96
:10180A000310CF0DFF3E031D052C4F08D0005108D1
:10181A0084008317521C8313500880042A2C013039
:10182A00CF00530A1A2C0310CF0DFF3E031D182CAC
:10183A004F08FF3AD000510884008317521C8313C3
:10184A00500880052A2C2A2C2A2C0800F900F701B6
:10185A00F801083079020318332C342C392C003063
:10186A00F8000730F7008A2C0E30790203183E2C54
:10187A003F2C462C0830F9020030F8000630F700F9
:10188A008A2C1530790203184B2C4C2C792C0E30EB
:10189A00F902033079020318532C542C592C0030C6
:1018AA00F8000530F7008A2C7908033A031D5E2CEC
:1018BA005F2C682C0230F5007508F9070030F80033
:1018CA000530F7008A2C0730790203186D2C6E2C2C
:1018DA008A2C0430F9020030F8000930F7008A2C0B
:1018EA008A2C8A2C8A2C8A2C1D30790203187E2C89
:1018FA007F2C8A2C1530F9020030F8000830F700E6
:10190A008A2C8A2C8A2C8A2C8A2C78087704031928
:10191A008F2C902CD82CF408031D942C952CA82CD1
:10192A000130F500790A9B2C0310F50DFF3E031DCB
:10193A00992C7508F600770884008317781C83139E
:10194A0076088004D82C7408013A031DAD2CAE2CFD
:10195A00C22C0130F500790AB42C0310F50DFF3EB4
:10196A00031DB22C7508FF3AF60077088400831726
:10197A00781C831376088005D82C0130F500790A83
:10198A00C82C0310F50DFF3E031DC62C7508F60082
:10199A00770884008317781C831376088006D82C6E
:1019AA00D82CD82CD82C080083120313D300D101C9
:1019BA00D201083053020318E32CE42CE92C00303E
:1019CA00D2000730D1003A2D0E3053020318EE2C04
:1019DA00EF2CF62C0830D3020030D2000630D100AA
:1019EA003A2D153053020318FB2CFC2C292D0E30EE
:1019FA00D302033053020318032D042D092D00309E
:101A0A00D2000530D1003A2D5308033A031D0E2D9A
:101A1A000F2D182D0230CF004F08D3070030D20007
:101A2A000530D1003A2D0730530203181D2D1E2D03
:101A3A003A2D0430D3020030D2000930D1003A2DB9
:101A4A003A2D3A2D3A2D3A2D1D30530203182E2DD8
:101A5A002F2D3A2D1530D3020030D2000830D10094
:101A6A003A2D3A2D3A2D3A2D3A2D5208510403199E
:101A7A003F2D402D882DCE08031D442D452D582D70
:101A8A000130CF00530A4B2D0310CF0DFF3E031D2B
:101A9A00492D4F08D000510884008317521C831324
:101AAA0050088004882D4E08013A031D5D2D5E2DD5
:101ABA00722D0130CF00530A642D0310CF0DFF3E63
:101ACA00031D622D4F08FF3AD00051088400831786
:101ADA00521C831350088005882D0130CF00530A09
:101AEA00782D0310CF0DFF3E031D762D4F08D00031
:101AFA00510884008317521C831350088006882DCE
:101B0A00882D882D882D080083120313C301023003
:101B1A004302031C912D922D942DFF2FFF2F173076
:101B2A00C4004408F00043080A168A11C8260A129B
:101B3A008A15163E903E840083178008031DA62D41
:101B4A00A72D492E173083120313C4004408F0004E
:101B5A0043080A168A11C8260A128A15103E903EB0
:101B6A0084008317000883120313C5001730C600C8
:101B7A004608F00043080A168A11C8260A128A156E
:101B8A00113E903E84008317000883120313450612
:101B9A00031DD02DD12DD42DFF2FFF2FF22F17305B
:101BAA00C4004408F00043080A168A11C8260A121B
:101BBA008A1583120313C50090304507C6001730F3
:101BCA00C7004708F00043080A168A11C8260A12F5
:101BDA008A15113E903E840083170008831203136E
:101BEA004607C800480884000008C9004908E400FC
:101BFA000130C4001730C5004508F00043080A1632
:101C0A008A11C8260A128A15113E903E8400831250
:101C1A0003134408831780070F30C4001730C50028
:101C2A004508F00043080A168A11C8260A128A15BE
:101C3A00113E903E840083120313440883178005E3
:101C4A001730C4004408F00043080A168A11C8264F
:101C5A000A128A15163E903E840083178001800A74
:101C6A00173083120313C4004408F00043080A160D
:101C7A008A11C8260A128A15133E903E84008317D9
:101C8A008001800AF22FF22F013083120313C4005D
:101C9A001730C5004508F00043080A168A11C826FD
:101CAA000A128A15143E903E8400831203134408D4
:101CBA0083178007D02F173083120313C4004408F8
:101CCA00F00043080A168A11C8260A128A15163E17
:101CDA00903E840083178001F22FF401F40A173032
:101CEA0083120313C4004408F00043080A168A1139
:101CFA00C8260A128A15123E903E840083170008ED
:101D0A000A128A152B240A128A1517308312031312
:101D1A00C4004408F00043080A168A11C8260A12A9
:101D2A008A15143E903E840083178001173083126F
:101D3A000313C4004408F00043080A168A11C8268F
:101D4A000A128A15153E903E8400831780010330DB
:101D5A0083120313C4001730C5004508F000430876
:101D6A000A168A11C8260A128A15133E903E840062
:101D7A0083120313440883178000F22F831203137C
:101D8A00641CC82EC92EDF2EF4011730C400440883
:101D9A00F00043080A168A11C8260A128A15123E4A
:101DAA00903E8400831700080A128A152B240A120F
:101DBA008A15F72EF401F40A173083120313C400AC
:101DCA004408F00043080A168A11C8260A128A151E
:101DDA00123E903E8400831700080A128A152B24AB
:101DEA000A128A15013083120313C4001730C50082
:101DFA004508F00043080A168A11C8260A128A15ED
:101E0A00153E903E8400831203134408831780070B
:101E1A000330C4001730C5004508F00043080A160D
:101E2A008A11C8260A128A15133E903E840083122C
:101E3A000313440883178000F22F17308312031309
:101E4A00C4004408F00043080A168A11C8260A1278
:101E5A008A15143E903E8400033083170002031C47
:101E6A00372F382FF22F173083120313C400440878
:101E7A00F00043080A168A11C8260A128A15153E66
:101E8A00903E840008308317000203184D2F4E2F0E
:101E9A00672F031083120313E40C0230C4001730B7
:101EAA00C5004508F00043080A168A11C8260A1216
:101EBA008A15133E903E8400831203134408831745
:101ECA0080007D2F043083120313C4001730C5002D
:101EDA004508F00043080A168A11C8260A128A150C
:101EEA00133E903E84008312031344088317800034
:101EFA001730C4004408F00043080A168A11C8269D
:101F0A000A128A15143E903E840083178001F22F2C
:101F1A00F22FF401173083120313C4004408F000AF
:101F2A0043080A168A11C8260A128A15123E903EDA
:101F3A008400831700080A128A152B240A128A15AC
:101F4A00173083120313C4004408F00043080A162A
:101F5A008A11C8260A128A15143E903E840003305C
:101F6A0083170002031CBA2FBB2FF22F17308312DC
:101F7A000313C4004408F00043080A168A11C8264D
:101F8A000A128A15133E903E840083178001F22FAD
:101F9A00F22FF22FF22F173083120313C4004408D2
:101FAA00F00043080A168A11C8260A128A15133E37
:101FBA00903E840083170008003A0319602E013A04
:101FCA000319722E033A0319C32E013A0319222F59
:101FDA00073A03198E2FF22FF22F013083120313BF
:101FEA00C4004408C30702304302031CFD2FFE2F1E
:101FFA00942DFF2F080010308A000408840A8207F3
:10200A000034483465346C346C346F3420345734BB
:0A201A006F3472346C346434003407
:102C2C000130F000700883120313BB000800013060
:102C3C0083120313CE004E08BC0008006400800110
:102C4C00840A0406031900340406252E8312031388
:102C5C003C08CE004E08CF004F08342E08008312DB
:102C6C0003133B08CE004E08CF004F083D2E080042
:102C7C003F3083120313CE004E089F059F17831617
:102C8C0003131F179F17080001340134013401345A
:102C9C0001340134013404340A340134FF34FF3478
:102CAC000134831203132508D101D1072408D00164
:102CBC00D0075108CF01CF075008CE01CE07662EA2
:102CCC000800F83083120313CE004E08831603134A
:102CDC0081050114811281118312031381010B11DF
:102CEC008B1608008B130B13013083120313A407EC
:102CFC000318A50A0030A507BB08031D862E872ED6
:102D0C008A2E8B170B178A2E08008B130B13700847
:102D1C0083120313A8070318A90A7108A907BB0893
:102D2C00031D992E9A2E9D2E8B170B179D2E080086
:102D3C007E088A007F0882000A168A119E260A16CF
:102D4C008A118000840A04087D0603190034FF0AE6
:102D5C000319FE0AA22E831203132A08FD007D0814
:102D6C00F00002300A168A11E0260A168A110A129D
:102D7C008A1113210A168A110A128A1589250A1634
:102D8C008A110800F200F301721CCD2ECE2ED32E28
:102D9C007008F1007108F307D32E0310F00D031027
:102DAC00F20CF208031DDB2EDC2ECA2EDD2E73086E
:102DBC00DF2E0800F1007108023A031DE62EE72E03
:102DCC00F72E7008FF3E8316031392008312031331
:102DDC008C10831603138C14831203131215F72E05
:102DEC00F72E080083120313D100D001511CFF2EC3
:102DFC00002F052F4E08CF004F08D007052F0310CA
:102E0C00CE0D0310D10CD108031D0D2F0E2FFC2E4F
:102E1C000F2F5008112F080083120313CF004F08F7
:102E2C00023A031D1A2F1B2F2B2F4E08FF3E831621
:102E3C0003139200831203138C10831603138C1448
:102E4C008312031312152B2F2B2F0800831203133D
:102E5C00D0005008023A031D342F352F452FFC307B
:102E6C00CF004F08920592148730CF004F0892057F
:102E7C0012164E08CF004F08E100452F452F0800D1
:102E8C00013083120313AC070318AD0A0030AD07F1
:102E9C0000302D02053003192C02031C562F572F1E
:102EAC00602FAC01AD011F195C2F5D2F602F1F151A
:102EBC00602F602F0800831203138C1C662F672F62
:102ECC007D2F831603138C1C6C2F6D2F7D2F83127B
:102EDC0003138C10831603138C108312031312111B
:102EEC0061080A128A1101210A168A117D2F080025
:102EFC00831203130C1C832F842F9A2F8316031316
:102F0C000C1C892F8A2F9A2F8312031310108316EF
:102F1C0003130C10831203130C1060080A128A118D
:102F2C0001210A168A119A2F080083120313D40167
:102F3C00D40AD501C030D6001230D70000300A12A6
:102F4C008A115F260A168A110A168A11DB270A16BD
:102F5C008A11831203135308A101A1075208A0017F
:102F6C00A00708000B1EBB2FBC2FC92F8B1CBF2F1B
:102F7C00C02FC92F0B120A128A11EA200A168A11C5
:102F8C008B100B16C92F8B1DCC2FCD2FDA2F0B1CB2
:102F9C00D02FD12FDA2F8B110A128A1115200A1675
:102FAC008A110B108B15DA2F0800DD2FDD2F0A1676
:102FBC008A1135260A168A11013A0319E62FE72FD2
:102FCC00DD2F8B130B130A168A1157260A168A113A
:102FDC00831203134F08D501D5074E08D401D4072B
:102FEC008B170B175508D301D3075408D201D207FE
:042FFC00FF2F08009B
:02400E0032FF7F
:00000001FF
