:040000000CEF00F011
:10000800FACF3CF0FBCF3DF0E9CF3EF01AED07F018
:10001800D6EF07F00001EB6F010E676E0001EB51A0
:100028000001EB6F000E2C6E0001EB5137D100017F
:10003800EB6F000E676E0001EB512C2A0001EB6F8D
:10004800000E2B6E0001EB5100D1010E2B244A6EDD
:100058004B6A000E4B22000E4D6E030E4C6E82EC66
:1000680008F0020E4A26000E4B22010E4A24D96ED1
:10007800000E4B20DA6EDF502D6E2B50030D020E52
:10008800F326000EF422010EF324D96E000EF4209C
:10009800DA6EDF502D6001D001D0D5D02B50030D82
:1000A800010EF324D96E000EF420DA6EDF502D6EA7
:1000B800010E2B244A6E4B6A000E4B22000E4D6E29
:1000C800030E4C6E82EC08F0010E4A24D96E000E25
:1000D8004B20DA6E2B50030D010EF324E16E000E57
:1000E800F420E26EDFCFE7FF010E2B244A6E4B6A45
:1000F800000E4B22000E4D6E030E4C6E82EC08F083
:10010800010E4A24D96E000E4B20DA6E2DC0DFFF97
:100118002B50030D020EF326000EF422010EF324D9
:10012800D96E000EF420DA6EDF502D6E010E2B24EE
:100138004A6E4B6A000E4B22000E4D6E030E4C6E3B
:1001480082EC08F0020E4A26000E4B22010E4A24C9
:10015800D96E000E4B20DA6E2B50030D020EF326DB
:10016800000EF422010EF324E16E000EF420E26E7C
:10017800DFCFE7FF010E2B244A6E4B6A000E4B229D
:10018800000E4D6E030E4C6E82EC08F0020E4A26ED
:10019800000E4B22010E4A24D96E000E4B20DA6E57
:1001A8002DC0DFFF2B50030D010EF326000EF422A5
:1001B800010EF324D96E000EF420DA6EDF502D6E96
:1001C800010E2B244A6E4B6A000E4B22000E4D6E18
:1001D800030E4C6E82EC08F0010E4A26000E4B22EC
:1001E800010E4A24D96E000E4B20DA6E2B50030DF7
:1001F800010EF326000EF422010EF324E16E000E28
:10020800F420E26EDFCFE7FF010E2B244A6E4B6A23
:10021800000E4B22000E4D6E030E4C6E82EC08F061
:10022800010E4A26000E4B22010E4A24D96E000EFA
:100238004B20DA6E2DC0DFFF0001EB6F010E676EF9
:100248000001EB5100D02B2A00D02C500001EB6F9D
:10025800EC6B0001EB1FEC1FEB4BEC2B505000013B
:10026800EB250001ED6F000E0001EC210001EE6F9F
:100278002B500001EF6FF06B0001F051800A000174
:10028800F16FED510001EF5D0001EE51800A0001B0
:10029800F159D8A001D001D0D8D600D0676601D0D6
:1002A80001D0C5D600D012003A6E000E316E3A5019
:1002B80022D170D03A6E000E326E3A503DD0325094
:1002C800030D020EF326000EF422010EF324D96E5C
:1002D800000EF420DA6EDF50D8B401D001D015D06A
:1002E8003250030D010EF326000EF422010EF32402
:1002F800D96E000EF420DA6EDF50336E3A6E000EBF
:10030800346E3A50E1EC04F015D03250030D010E72
:10031800F326000EF422010EF324D96E000EF42009
:10032800DA6EDF50336E3A6E010E346E3A50E1ECFD
:1003380004F000D0322A00D02750325CD8A001D077
:1003480001D0BDD738D037D002C033F03A6E010E95
:10035800346E3A50E1EC04F02ED005C033F03A6E1A
:10036800010E346E3A50E1EC04F025D008C033F0A9
:100378003A6E010E346E3A50E1EC04F01CD00BC01A
:1003880033F03A6E010E346E3A50E1EC04F013D0BB
:1003980012D011D06550000AD8B4D6D7010AD8B403
:1003A800DCD7030AD8B4E2D7010AD8B4E8D7070AD9
:1003B800D8B480D700D03A6E010E316E3A506550ED
:1003C800040AD8A401D001D029D03A6E000E656E77
:1003D8003A500328D8B401D001D00BD03A6E020E9F
:1003E800336E3A5003C034F0D8EC09F003C029F05A
:1003F80082D03A6E020E336E3A50295000083B6E96
:100408003B04346ED8EC09F03A6E000E296E3A506F
:100418003A6E040E656E3A506ED06DD0652A27503C
:10042800656001D001D051D06550030D020EF3264E
:10043800000EF422010EF324D96E000EF420DA6EB9
:10044800DF50FF0AD8B401D001D03FD06550030D6A
:10045800020EF326000EF422010EF324D96E000ECC
:10046800F420DA6EDF502918D8B401D001D027D093
:100478003A6E020E336E3A506550030D020EF326A3
:10048800000EF422010EF324D96E000EF420DA6E69
:10049800DF503B6E295000083B24346ED8EC09F03D
:1004A8006550030D020EF326000EF422010EF3240C
:1004B800D96E000EF420DA6EDF50296E1CD03A6E29
:1004C800000E316E3A5017D016D03A6E020E336EC7
:1004D8003A50295000083B6E3B04346ED8EC09F0C2
:1004E8003A6E000E296E3A503A6E040E656E3A5016
:1004F80002D001D000D0316601D001D006D02766E5
:1005080001D001D047D701D000D01200546E000EA0
:1005180000010001F26F5450070E536001D001D062
:1005280005D0546E070E536E545009D0FA0E53641A
:1005380001D001D004D0536802D001D000D0546E4D
:10054800020E4A6E5450020E4C6EB00E4B6E94EC76
:1005580009F052C04AF0546E000E4B6E545082ECB3
:1005680005F052C04AF0546E010E4B6E545040ECE8
:1005780004F0546E000E00010001F36F54503AD09D
:1005880000010001F351030D010EF324D96E000E92
:10059800F420DA6E5150DF6201D001D027D000017B
:1005A8000001F351030D010EF326000EF422010E93
:1005B800F324D96E000EF420DA6E52C0DFFF00017A
:1005C8000001F351030D020EF326000EF422010E72
:1005D800F324D96E000EF420DA6E53C0DFFF546E98
:1005E800010E00010001F26F545000D0000100011B
:1005F800F32B00D0275000010001F35DD8A001D0F3
:1006080001D0BED700010001F26701D001D028D087
:100618002750030D010EF324D96E000EF420DA6E74
:1006280051C0DFFF2750030D010EF326000EF42200
:10063800010EF324D96E000EF420DA6E52C0DFFFEB
:100648002750030D020EF326000EF422010EF324A8
:10065800D96E000EF420DA6E53C0DFFF272A00D0CF
:10066800306601D001D03FD0546E010E306E545028
:100678000350D8B401D001D009D002C04AF0546E5A
:10068800000E4B6E545040EC04F009D002C04AF002
:10069800546E010E4B6E545040EC04F000D0546E72
:1006A800000E656E54500328D8B401D001D00BD089
:1006B800546E020E4A6E545003C04BF0CAEC09F057
:1006C80003C029F015D0546E020E4A6E5450556E70
:1006D800FF0E4B6E5550CAEC09F0546E040E656E51
:1006E800545006D005D027C050F00EEC00F000D0D2
:1006F8001200815093141E182E6E2EA801D001D01E
:100708002BD02250020AD8A401D001D006D081B83B
:1007180001D001D002D01BD01AD02250030AD8A48D
:1007280001D001D006D081A801D001D002D00FD0CD
:100738000ED001D80AD00500FA6E5950FD6E5A50F5
:10074800FE6EF850FF6EFA50120001D000D01E98CD
:100758008150100B1E1200D02EAA01D001D02BD030
:100768002350020AD8A401D001D006D081BA01D002
:1007780001D002D01BD01AD02350030AD8A401D02C
:1007880001D006D081AA01D001D002D00FD00ED05E
:1007980001D80AD00500FA6E5B50FD6E5C50FE6E03
:1007A800F850FF6EFA50120001D000D01E9A815006
:1007B800200B1E1200D02EAC01D001D02BD024501B
:1007C800020AD8A401D001D006D081BC01D001D042
:1007D80002D01BD01AD02450030AD8A401D001D0CB
:1007E80006D081AC01D001D002D00FD00ED001D8F4
:1007F8000AD00500FA6E5D50FD6E5E50FE6EF85030
:10080800FF6EFA50120001D000D01E9C8150400BA0
:100818001E1200D02EAE01D001D02BD02550020AD6
:10082800D8A401D001D006D081BE01D001D002D019
:100838001BD01AD02550030AD8A401D001D006D065
:1008480081AE01D001D002D00FD00ED001D80AD08D
:100858000500FA6E5F50FD6E6050FE6EF850FF6E38
:10086800FA50120001D000D01E9E8150800B1E123B
:1008780000D093501E161200000E506E000E4F6EE0
:10088800080E4A6001D001D005D00F0E506E8B0EB5
:100898004F6E4AD00E0E4A6001D001D007D0080E24
:1008A8004A5E0F0E506E8A0E4F6E3ED0150E4A608D
:1008B80001D001D029D00E0E4A5E030E4A6001D045
:1008C80001D005D00F0E506E890E4F6E2DD04A50B4
:1008D800030AD8A401D001D007D0020E4A260F0E71
:1008E800506E890E4F6E20D0070E4A6001D001D09D
:1008F8001BD0040E4A5E0F0E506E8D0E4F6E14D034
:1009080013D012D011D010D01D0E4A6001D001D0E2
:100918000BD0150E4A5E0F0E506E8C0E4F6E04D023
:1009280003D002D001D000D050504F10D8B401D01D
:1009380001D042D04B6601D001D011D04AC04CF052
:10094800010E4D6E4C2A02D0D8904D364C2EFCD755
:100958004FC0D9FF50C0DAFF4D50DF122DD04B04E5
:10096800D8A401D001D014D04AC04CF0010E4D6E6D
:100978004C2A02D0D8904D364C2EFCD74D50FF0A49
:100988004E6E4FC0D9FF50C0DAFF4E50DF1614D05C
:100998004AC04CF0010E4D6E4C2A02D0D8904D360C
:1009A8004C2EFCD74FC0D9FF50C0DAFF4D50DF1A8C
:1009B80003D002D001D000D01200000E396E000E14
:1009C800386E080E336001D001D005D00F0E396E95
:1009D8008B0E386E4AD00E0E336001D001D007D08E
:1009E800080E335E0F0E396E8A0E386E3ED0150E25
:1009F800336001D001D029D00E0E335E030E336070
:100A080001D001D005D00F0E396E890E386E2DD069
:100A18003350030AD8A401D001D007D0020E3326E0
:100A28000F0E396E890E386E20D0070E336001D054
:100A380001D01BD0040E335E0F0E396E8D0E386E4A
:100A480014D013D012D011D010D01D0E336001D0A5
:100A580001D00BD0150E335E0F0E396E8C0E386E2A
:100A680004D003D002D001D000D039503810D8B407
:100A780001D001D042D0346601D001D011D033C0AA
:100A880035F0010E366E352A02D0D8903636352E1E
:100A9800FCD738C0D9FF39C0DAFF3650DF122DD065
:100AA8003404D8A401D001D014D033C035F0010EDD
:100AB800366E352A02D0D8903636352EFCD73650C9
:100AC800FF0A376E38C0D9FF39C0DAFF3750DF1652
:100AD80014D033C035F0010E366E352A02D0D890C6
:100AE8003636352EFCD738C0D9FF39C0DAFF365034
:100AF800DF1A03D002D001D000D01200000E506ED1
:100B0800000E4F6E080E4A6001D001D005D00F0EBE
:100B1800506E940E4F6E4AD00E0E4A6001D001D02E
:100B280007D0080E4A5E0F0E506E930E4F6E3ED0E1
:100B3800150E4A6001D001D029D00E0E4A5E030E70
:100B48004A6001D001D005D00F0E506E920E4F6E44
:100B58002DD04A50030AD8A401D001D007D0020EE4
:100B68004A260F0E506E920E4F6E20D0070E4A6026
:100B780001D001D01BD0040E4A5E0F0E506E960EA7
:100B88004F6E14D013D012D011D010D01D0E4A6061
:100B980001D001D00BD0150E4A5E0F0E506E950E87
:100BA8004F6E04D003D002D001D000D050504F1067
:100BB800D8B401D001D02CD04B04D8A401D001D096
:100BC80011D04AC04CF0010E4D6E4C2A02D0D8907C
:100BD8004D364C2EFCD74FC0D9FF50C0DAFF4D50D0
:100BE800DF1216D04AC04CF0010E4D6E4C2A02D0CE
:100BF800D8904D364C2EFCD74D50FF0A4E6E4FC044
:100C0800D9FF50C0DAFF4E50DF1602D001D000D015
:100C18001200536E000E546E535053D05450030DAF
:100C2800010EF324D96E000EF420DA6E5150DF6203
:100C380001D001D044D05450030D020EF326000E0B
:100C4800F422010EF324D96E000EF420DA6E52C09D
:100C5800DFFF526601D001D015D05450030D010EAC
:100C6800F326000EF422010EF324D96E000EF420B0
:100C7800DA6EDF504A6E536E010E4B6E535040ECE5
:100C880004F01DD05228D8A401D001D018D0545057
:100C9800030D010EF326000EF422010EF324D96E83
:100CA800000EF420DA6EDF504A6E536E000E4B6E63
:100CB800535040EC04F003D002D001D000D0542AA5
:100CC80000D02750545CD8A001D001D0A7D700D0BD
:100CD80027C050F00EEC00F012009EAC01D001D0FD
:100CE80053D09DAC01D001D04FD09E9C2050030A18
:100CF800D8A401D001D002D00DD00CD0030E2064AE
:100D080001D001D003D020042A6E04D020C02AF0DC
:100D180001D000D0C350C4CF33F0346A33C034F0AC
:100D2800336A3326000E3422FF0E3314356E030E59
:100D38003414366E2A50020D0001800EF324D96E49
:100D48000001000EF420DA6E35C0DEFF36C0DDFF8C
:100D5800070E206001D001D00AD0202A2050030AB3
:100D6800D8A401D001D008D0202A06D005D0336EEF
:100D7800000E206E335000D0C30EC2162044E84641
:100D8800FC0B3C0BC21200D012000FC04EF010C07A
:100D98004FF06CEC09F0320E4E5C000E4F58D8A0A4
:100DA80001D001D042D0BAEC09F04EC00FF04FC0CC
:100DB80010F0170E1C6401D001D009D0556E180E22
:100DC8001C6E5550556E000E1D6E555010D0020EFB
:100DD8001C6001D001D00BD0556E010E1D6E555010
:100DE800556E010E1C6E555002D001D000D01D501A
:100DF800D8B401D001D002D01C2A02D01C0600D0E1
:100E08001C50010D0001D20EF324D96E0001000E12
:100E1800F420DA6EDF501B6E556E000E516E555081
:100E28001BC052F00DEC06F000D012000600EACF0D
:100E38003FF0E1CF40F0E2CF41F0D9CF42F0DACF36
:100E480043F0F3CF44F0F4CF45F0F6CF46F0F7CFB8
:100E580047F0F8CF48F0F5CF49F0F29EF29C5CECF1
:100E680008F0F8EC08F011EC09F032EC08F0BEECF0
:100E780008F09DEC07F071EC06F0F28EF28C49C098
:100E8800F5FF48C0F8FF47C0F7FF46C0F6FF45C06A
:100E9800F4FF44C0F3FF43C0DAFF42C0D9FF41C0AA
:100EA800E2FF40C0E1FF3FC0EAFF3EC0E9FF3DC0AE
:100EB800FBFF3CC0FAFF1100C2909280928292849C
:100EC800928A9680968296844B04D8A401D001D049
:100ED80004D0C00EC116C18804D0C00EC116C150BE
:100EE80000D00CEC0AF04C6E000E206E4C50C30E75
:100EF800C2162044E846FC0B3C0BC2129E9C9D8CFB
:100F0800C28000D0F2BE01D001D009D028EC0AF08E
:100F18004C6E4C04D8B401D001D0F4D700D0F29E66
:100F2800F29C1A0EE82EFED700D0F28EF28CC28206
:100F380012009EA801D001D034D09DA801D001D0C4
:100F480030D09E9800010001D051000120EED1F070
:100F5800DF6201D001D002D09D9823D000010001AA
:100F6800D151010D0001B00EF324D96E0001000E1D
:100F7800F420DA6EDF50AD6E00010001D12B1F0E98
:100F880000010001D11700010001D051000120EE3D
:100F9800D1F0DF6201D001D004D09D9802D001D0F9
:100FA80000D0120000EE80F0520EEE6AE806FDE175
:100FB80000EE01F0320EEE6AE806FDE1E60EF66E8E
:100FC800130EF76E000EF86E00EED2F010EE19F068
:100FD8000900F5CFEEFFE550E150FAE12C0EF66E70
:100FE800140EF76E000EF86E00EE57F010EE12F0C9
:100FF8000900F5CFEEFFE550E150FAE1000EF86E7A
:10100800000107EF08F057EC09F000EC0AF0566E03
:10101800000E4B6E565060EC07F0566E010E4A6E8D
:101028005650130E4C6ECC0E4B6EA7EC09F0566E54
:10103800010E4A6E5650070E4C6ED00E4B6EA1EC48
:1010480008F0F28EF28C32EC0AF02AEC09F000D0AB
:10105800C9EC06F0FDD7FCD70CEF00F09EAA01D032
:1010680001D025D09DAA01D001D021D09E9A00019F
:101078000001AE51010D00018E0EF324D96E00015E
:10108800000EF420DA6EAECFDFFF00010001AE29BA
:101098001F0B2F6E00010001AF512F18D8B401D0DB
:1010A80001D005D02FC0AEF002D001D000D0120080
:1010B800F2A401D001D021D0F2AA01D001D01DD0D4
:1010C800F294010E346E000E336E2DEC0AF0FF0E12
:1010D8001926000E1A2207D035EC0AF0E80E195E20
:1010E800030E1A5A00D0E80E195C030E1A58D8B02D
:1010F80001D001D0F1D701D000D01200000E4F6E00
:10110800000E4E6E00D04AA001D001D005D04C5040
:101118004E264D504F2200D0D8904C364D36D890A0
:101128004B324A324B504A10D8A401D001D0EBD7E9
:101138004EC04AF04FC04BF012004A04D8A401D068
:1011480001D017D04BC04DF04CC04EF04D1E4E1E76
:101158004D4A4E2AFF0E4D244B6EFF0E4E204C6E0C
:101168004C50CF6E4BC0CEFF9E909D80CD8001D05D
:1011780000D01200F2A801D001D00AD0F2A201D00A
:1011880001D006D0F29880EC09F0F292F28800D0F3
:10119800F2A601D001D00AD0F2A001D001D006D029
:1011A800F2967DEC03F0F290F28600D01200330440
:1011B800D8A401D001D017D034C036F035C037F0EC
:1011C800361E371E364A372AFF0E3624346EFF0E77
:1011D8003720356E3550CF6E34C0CEFF9E909D803F
:1011E800CD8001D000D012009EA001D001D014D033
:1011F8009DA001D001D010D0CD909D909E9001D897
:101208000AD00500FA6E6150FD6E6250FE6EF8500D
:10121800FF6EFA50120000D012009EA201D001D039
:1012280014D09DA201D001D010D09E929D92CA9454
:1012380001D80AD00500FA6E6350FD6E6450FE6E48
:10124800F850FF6EFA50120000D012000001F46F3F
:10125800000E516E0001F4510001F56F1C0E526E24
:101268000001F5511BC053F08AEC02F0BAEC09F00A
:101278004EC00FF04FC010F01200174A182A050E82
:10128800175C000E1858D8A001D001D00BD0000E62
:10129800186E000E176EC2B201D001D003D0C28200
:1012A80001D000D012003F0E896E3F0E926E000EE4
:1012B8008A6E000E936EC00E8B6E800E946E0C0EAE
:1012C8008C6E0C0E956E070E8D6E070E966E1200C4
:1012D800F29EF29C1FEC0AF04AC050F04BC051F04D
:1012E8004E50505E4F50515AF28EF28C50C04EF014
:1012F80051C04FF000D012002104D8A401D001D071
:1013080002D0F17C00D001D80AD00500FA6E5750FF
:10131800FD6E5850FE6EF850FF6EFA501200120023
:101328004A50020AD8A401D001D00CD0FC0ECA162B
:10133800CA82870ECA16CA8A4BC063F04CC064F0D2
:1013480001D000D012004A04D8A401D001D00DD099
:10135800CD96CD84CD92CD8ECF0ECD16CD8A4BC0F5
:1013680061F04CC062F001D000D01200F29EF29CF5
:101378001FEC0AF04AC050F04BC051F0F28EF28CCC
:1013880050C04EF051C04FF000D012004A50020A2F
:10139800D8A401D001D007D04B04CB6E9E929D8279
:1013A800CA8401D000D012003350020AD8A401D058
:1013B80001D007D03404CB6E9E929D82CA8401D09E
:1013C80000D01200386E010E336E3850070E356E9D
:1013D800D00E346EDBEC08F041EC09F0120000008E
:1013E80000000001020305080B1017202D405A7F4A
:1013F800B4FFFFFFFFFFFF00F80ED516D582D59A80
:10140800D596000ED66ED58CD58EF294F28A12003F
:10141800FC0EC016030EC012C70EC016280EC0124E
:10142800C08E120074147414741474147414721426
:1014380070140401010111C04CF012C04DF04CC0F1
:101448004AF04DC04BF0120026C04AF04A5000D076
:10145800120033501526345016221200010E266E43
:0E1468001200114A122A120012001200120085
:020000040030CA
:08000000FF061800FF8181FFDB
:00000001FF
