:060000000A128A11122809
:10000800FE00030EF8000408F9000A08FA0083123B
:1000180003137F08FB000A128A11B7280A128A11F3
:100028001528FC018313203084004E300A128A11EF
:10003800F5200A128A11A0308400E4300A128A11CD
:10004800F5200A128A118317A9308400B7300A12E2
:100058008A11F5200A128A11A930FD000930FE0024
:10006800FF30FF00903084000A128A158A210A1294
:100078008A1183137030FD000730FE00F430FF0052
:10008800653084000A128A158A210A128A110A1216
:100098008A11FF27FD0083010A128A15232B831278
:1000A8000313D2001F1083160313051485140515B6
:1000B8008516091489140915831203135208013A85
:1000C800031D6E28F030D0005008831603139F05D7
:1000D8001F147628F0308312D000500883160313BB
:1000E8009F051F083F3083120313D00050089F0557
:1000F8009F17831603131F179F1783120313BD013E
:10010800C730D00050089F053D08D00002300310CA
:10011800D00DFF3E031D8B280310500D3839D10038
:1001280051089F040C13831603130C17831203132F
:100138001F14A6280A128A153E210A128A11013AAA
:10014800031DA8288B1F9E288B130B1310308312B6
:100158000313D000D00BAE2800008B170B178312A7
:1001680003131F1508008B130B130A128A15282175
:100178000A128A110A128A15A2220A128A110A126E
:100188008A15D3210A128A110A128A15BD210A1268
:100198008A110A128A15F7220A128A110A128A1576
:1001A800E9210A128A110A128A15CC220A128A1126
:1001B8000A128A1558230A128A110A128A1524214A
:1001C8000A128A118B170B177B0883120313FF007F
:1001D8007A088A0079088400780E8300FE0E7E0E65
:1001E800090064008001840A040603190034040627
:1001F800F6280800080008000029FF0001308A00DE
:100208007F08820706290A128A11FF280A128A1112
:1002180013290A128A11FE280A128A11FD28F701E9
:10022800682DF70183120313480877020318EA2C94
:100238000330F4007408F00077080A128A15752153
:100248000A128A11023E203E840083138008031D8F
:10025800A2295D2A831203130714C42A83120313E5
:100268008714C42A831203130715C42A831203139D
:100278008715C42A831203130716C42A831203138B
:100288008716C42A831203130717C42A8312031379
:100298008717C42A831203130614C42A831203136C
:1002A8008614C42A831203130615C42A831203135F
:1002B8008615C42A831203130616C42A831203134D
:1002C8008616C42A831203130514C42A831203133F
:1002D8008514C42A831203130515C42A8312031331
:1002E8008516C42A831203130914C42A831203131C
:1002F8008914C42A831203130915C42A8312031309
:100308000814C42A831203138814C42A83120313FB
:100318000815C42A831203138815C42A83120313E9
:100328000816C42A831203138816C42A83120313D7
:100338000817C42A831203138817C42A0330F40049
:100348007408F00077080A128A1575210A128A11B2
:10035800013E203E840083130008003A03192E2929
:10036800013A03193229033A03193629013A0319C4
:100378003A29073A03193E29013A03194229033A4F
:1003880003194629013A03194A290F3A03194E2934
:10039800013A03195229033A03195629013A031954
:1003A8005A29073A03195E29013A03196229033ABF
:1003B80003196629013A03196A291F3A03196E2994
:1003C800013A03197229033A03197629013A0319E4
:1003D8007A29073A03197E29013A03198229033A2F
:1003E80003198629013A03198A290F3A03198E2914
:1003F800013A03199229033A03199629013A031974
:100408009A29073A03199E29C42AC42AFE30192AB0
:10041800FD30192AFB30192AF730192AEF30192A2A
:10042800DF30192ABF30192A7F30F400740883128C
:1004380003138705C42AFE302A2AFD302A2AFB30F6
:100448002A2AF7302A2AEF302A2ADF30F4007408E3
:10045800831203138605C42AFE30372AFD30372A53
:10046800FB30372ADF30F400740883120313850544
:10047800C42AFE30422AFD30422AFB30F4007408B8
:10048800831203138905C42AFE30572AFD30572AE0
:10049800FB30572AF730572AEF30572ADF30572AD0
:1004A800BF30572A7F30F40074088312031388057D
:1004B800C42A0330F4007408F00077080A128A1579
:1004C80075210A128A11013E203E84008313000818
:1004D800003A03190A2A013A03190C2A033A0319A4
:1004E8000E2A013A0319102A073A0319122A013A67
:1004F8000319142A033A0319162A013A0319182A68
:100508000F3A03191F2A013A0319212A033A03193A
:10051800232A013A0319252A073A0319272A013AF7
:100528000319292A033A0319302A013A0319322AEE
:100538001F3A0319342A013A0319362A033A0319D0
:100548003D2A013A03193F2A073A0319412A013A79
:100558000319482A033A03194A2A013A03194C2A6B
:100568000F3A03194E2A013A0319502A033A03197C
:10057800522A013A0319542A073A0319562AC42A57
:100588000130F4007408F7071629342C362C382C5F
:100598003A2C3C2C3E2C402C422C472C492C4B2CE2
:1005A8004D2C4F2C512C562C582C5A2C5C2C612C31
:1005B800632C652C6A2C6C2C6E2C702C722C742C71
:1005C800762C782C831203132108003A0319C92AC0
:1005D800013A0319CA2A033A0319CB2A013A031923
:1005E800CC2A073A0319CD2A013A0319CE2A033A2D
:1005F8000319CF2A013A0319D02A0F3A0319D12A2D
:10060800013A0319D22A033A0319D32A013A0319E2
:10061800D42A073A0319D52A013A0319D62A033AE4
:100628000319D72A013A0319D82A1F3A0319D92AD4
:10063800013A0319DA2A033A0319DB2A013A0319A2
:10064800DC2A073A0319DD2A013A0319DE2A033A9C
:100658000319DF2A013A0319E02A0F3A0319E12A9C
:10066800013A0319E22A033A0319E32A013A031962
:10067800E42A073A0319E52AEA2CEA2C342C362C0A
:10068800382C3A2C3C2C3E2C402C422C472C492C04
:100698004B2C4D2C4F2C512C562C582C5A2C5C2C56
:1006A800612C632C652C6A2C6C2C6E2C702C722C93
:1006B800742C762C782C831203132408003A03191F
:1006C800422B013A0319432B033A0319442B013AED
:1006D8000319452B073A0319462B013A0319472BEF
:1006E800033A0319482B013A0319492B0F3A031906
:1006F8004A2B013A03194B2B033A03194C2B013AA5
:1007080003194D2B073A03194E2B013A03194F2BA6
:10071800033A0319502B013A0319512B1F3A0319B5
:10072800522B013A0319532B033A0319542B013A5C
:100738000319552B073A0319562B013A0319572B5E
:10074800033A0319582B013A0319592B0F3A031985
:100758005A2B013A03195B2B033A03195C2B013A14
:1007680003195D2B073A03195E2BEA2CEA2C342C6B
:10077800362C382C3A2C3C2C3E2C402C422C472C26
:10078800492C4B2C4D2C4F2C512C562C582C5A2C78
:100798005C2C612C632C652C6A2C6C2C6E2C702CB8
:1007A800722C742C762C782C831203132708003AA9
:1007B8000319BB2B013A0319BC2B033A0319BD2BB0
:1007C800013A0319BE2B073A0319BF2B013A031943
:1007D800C02B033A0319C12B013A0319C22B0F3A54
:1007E8000319C32B013A0319C42B033A0319C52B68
:1007F800013A0319C62B073A0319C72B013A031903
:10080800C82B033A0319C92B013A0319CA2B1F3AFB
:100818000319CB2B013A0319CC2B033A0319CD2B1F
:10082800013A0319CE2B073A0319CF2B013A0319C2
:10083800D02B033A0319D12B013A0319D22B0F3AC3
:100848000319D32B013A0319D42B033A0319D52BD7
:10085800013A0319D62B073A0319D72BEA2CEA2CAD
:10086800FE30432CFD30432CFB30432CF730432C17
:10087800EF30432CDF30432CBF30432C7F30F40063
:1008880074088705EA2CFE30522CFD30522CFB30C0
:10089800522CF730522CEF30522CDF30F400740811
:1008A8008605EA2CFE305D2CFD305D2CFB305D2C7E
:1008B800DF30F40074088505EA2CFE30662CFD3024
:1008C800662CFB30F40074088905EA2CFE30792C7C
:1008D800FD30792CFB30792CF730792CEF30792CDE
:1008E800DF30792CBF30792C7F30F400740888050C
:1008F800EA2C831203132A08003A0319342C013A0C
:100908000319362C033A0319382C013A03193A2CE7
:10091800073A03193C2C013A03193E2C033A0319F0
:10092800402C013A0319422C0F3A0319472C013A7B
:100938000319492C033A03194B2C013A03194D2C7E
:10094800073A03194F2C013A0319512C033A03199A
:10095800562C013A0319582C1F3A03195A2C013AFC
:1009680003195C2C033A0319612C013A0319632C0F
:10097800073A0319652C013A03196A2C033A03193B
:100988006C2C013A03196E2C0F3A0319702C013A9A
:100998000319722C033A0319742C013A0319762CA3
:1009A800073A0319782CEA2CEA2C7D08003A031937
:1009B800E62A013A03195F2B033A0319D82B013AA7
:1009C80003197D2C073A03191529EA2CF601F60AB2
:1009D8007D08043A031D092DFD0183120313220823
:1009E800FF3A03196A2D2208FF3E8316031392006B
:1009F800831203138C10831603138C1483120313AE
:100A080012152208F4007408662D0130F4007408E9
:100A1800FD078312031348087D0203186A2D03306B
:100A2800F4007408F0007D080A128A1575210A126C
:100A38008A11023E203E840083130008FF3A0319FE
:100A48006A2D0330F4007408F0007D080A128A1534
:100A580075210A128A11023E203E84008313000881
:100A68007C060319682D0330F4007408F0007D0833
:100A78000A128A1575210A128A11023E203E840044
:100A88007C03FF3A83130007FF3E8316031392008B
:100A9800831203138C10831603138C14831203130D
:100AA80012150330F4007408F0007D080A128A1544
:100AB80075210A128A11023E203E84008313000821
:100AC800F5007508FC00802DF601802D7C08013E9C
:100AD800FF3A013EFF3E831603139200831203136D
:100AE8008C10831603138C14831203131215FC0144
:100AF8000430F4007408FD00F608031D0800831292
:100B08000313C80803190800D92C83120313DE0045
:100B1800DF0148085F020318602F0330DC005C081F
:100B2800CE005F080A128A15AA210A128A11203EED
:100B3800840083130008831203135E06031D592FD4
:100B48005B08DC000330DD005D08CE005F080A1298
:100B58008A15AA210A128A11023E203E84008312B5
:100B680003135C0883138000DB0803190F2E772E0C
:100B7800FE30CB2DFD30CB2DFB30CB2DF730CB2DE0
:100B8800EF30CB2DDF30CB2DBF30CB2D7F30831214
:100B98000313DC005C088705592FFE30DC2DFD307F
:100BA800DC2DFB30DC2DF730DC2DEF30DC2DDF3099
:100BB80083120313DC005C088605592FFE30E92DEB
:100BC800FD30E92DFB30E92DDF3083120313DC0003
:100BD8005C088505592FFE30F42DFD30F42DFB30CF
:100BE80083120313DC005C088905592FFE30092E97
:100BF800FD30092EFB30092EF730092EEF30092E73
:100C0800DF30092EBF30092E7F3083120313DC003A
:100C18005C088805592F0330DC005C08CE005F08AB
:100C28000A128A15AA210A128A11013E203E84005E
:100C380083130008003A0319BC2D013A0319BE2D8D
:100C4800033A0319C02D013A0319C22D073A0319B3
:100C5800C42D013A0319C62D033A0319C82D013AC8
:100C68000319CA2D0F3A0319D12D013A0319D32DAF
:100C7800033A0319D52D013A0319D72D073A031959
:100C8800D92D013A0319DB2D033A0319E22D013A54
:100C98000319E42D1F3A0319E62D013A0319E82D2B
:100CA800033A0319EF2D013A0319F12D073A0319F5
:100CB800F32D013A0319FA2D033A0319FC2D013AD1
:100CC8000319FE2D0F3A0319002E013A0319022EBB
:100CD800033A0319042E013A0319062E073A031999
:100CE800082E592F592F831203135B08FF3A031953
:100CF800F22E592F831203130714592F831203134B
:100D08008714592F831203130715592F83120313BE
:100D18008715592F831203130716592F83120313AC
:100D28008716592F831203130717592F831203139A
:100D38008717592F831203130614592F831203138D
:100D48008614592F831203130615592F8312031380
:100D58008615592F831203130616592F831203136E
:100D68008616592F831203130514592F8312031360
:100D78008514592F831203130515592F8312031352
:100D88008516592F831203130914592F831203133D
:100D98008914592F831203130915592F831203132A
:100DA8000814592F831203138814592F831203131D
:100DB8000815592F831203138815592F831203130B
:100DC8000816592F831203138816592F83120313F9
:100DD8000817592F831203138817592F0330DC0083
:100DE8005C08CE005F080A128A15AA210A128A1125
:100DF800013E203E840083130008003A03197E2E2A
:100E0800013A0319822E033A0319862E013A03196F
:100E18008A2E073A03198E2E013A0319922E033AA5
:100E28000319962E013A03199A2E0F3A03199E2E8A
:100E3800013A0319A22E033A0319A62E013A0319FF
:100E4800AA2E073A0319AE2E013A0319B22E033A15
:100E58000319B62E013A0319BA2E1F3A0319BE2EEA
:100E6800013A0319C22E033A0319C62E013A03198F
:100E7800CA2E073A0319CE2E013A0319D22E033A85
:100E88000319D62E013A0319DA2E0F3A0319DE2E6A
:100E9800013A0319E22E033A0319E62E013A03191F
:100EA800EA2E073A0319EE2E592F01308312031345
:100EB800DC005C08DF078D2D48080A128A15022419
:100EC800080083120313060883160313060583120A
:100ED80003133B06F0007008CB004B1E902F42080E
:100EE800023A031D792F061E852F4208033A031D77
:100EF8007F2F061A852F68080A128A1101210A1203
:100F08008A11EF30F000700883120313BB0506083E
:100F18001039F0007008BB04CB1EAF2F4308023A0B
:100F2800031D982F861EA42F4308033A031D9E2FE6
:100F3800861AA42F69080A128A1101210A128A1135
:100F4800DF30F000700883120313BB050608203950
:100F5800F0007008BB044B1FCE2F4408023A031D53
:100F6800B72F061FC32F4408033A031DBD2F061BC6
:100F7800C32F6A080A128A1101210A128A11BF3086
:100F8800F000700883120313BB0506084039F0000F
:100F98007008BB04CB1FEB2F4508023A031DD62F60
:100FA800861FE02F4508033A031DDC2F861BE02F20
:100FB8006B080A128A1101217F30F0007008831231
:100FC8000313BB0506088039F0007008BB048316BC
:100FD80003130608F000700883120313BB0508000A
:100FE80010341034103410341034103410340734E2
:080FF8000D340134013404340E
:1012480083120313C60108000130F00070088312EE
:101258000313C6000800013083120313CE004E08A2
:10126800C7000800831203134608CE004E08CF00BB
:101278004F080800831203134708CE004E08CF001A
:101288004F080800831203133308D101D10732082D
:10129800D001D0075108CF01CF075008CE01CE07A3
:1012A80008008B130B13013083120313B2070318C2
:1012B800B30A0030B307C608031D08008B170B17C5
:1012C80008008B130B13013083120313B4070318A0
:1012D800B50A0030B507C608031D08008B170B17A1
:1012E8000800F200F301721C7D297008F1007108F2
:1012F800F3070310F00D0310F20CF208031D772911
:10130800730808007E088A007F08820086210A1276
:101318008A158000840A04087D0603190034FF0A30
:101328000319FE0A8A29831203133E08013A031D92
:10133800A42983160313011BA3290117A429011348
:10134800831265080A128A11012108008312031307
:10135800D100D001511CB4294E08CF004F08D00746
:101368000310CE0D0310D10CD108031DAE2950086F
:101378000800831203130C1C0800831603130C1CAB
:101388000800831203131010831603130C10831222
:1013980003130C106C080A128A1101210800831229
:1013A80003138C1C0800831603138C1C080083127B
:1013B80003138C10831603138C108312031312115A
:1013C8006D080A128A11012108000B1A8B1CF429D6
:1013D8000B120A128A1597210A128A158B100B16FE
:1013E8008B1D08000B1C08008B110A128A11652737
:1013F8000B108B150800003400340034003400341E
:10140800013402340334053408340B3410341734EF
:1014180020342D3440345A347F34B434FF34FF340C
:10142800FF34FF34FF34FF341C3083120313E2000F
:101438006208DB003808E3006308DC0000300A12A9
:101448008A1543250A128A150A128A15342283122C
:1014580003135308AF01AF075208AE01AE070800E7
:101468000A128A1536210A128A15013A0319342AF2
:101478008B130B130A128A154621831203134F0884
:10148800D501D5074E08D401D4078B170B1755087B
:10149800D301D3075408D201D207080083120313DB
:1014A80085013F30831603138500831203138601D9
:1014B800FF308316031386008030831203138700DE
:1014C800BF308316031387000C3083120313880080
:1014D8000C30831603138800073083120313890026
:1014E800073083160313890008000A128A1536216B
:1014F8000A128A15013A0319792A8B130B138312DE
:1015080003135209D4005309D500D40A0319D50A84
:101518000A128A1546218312031354084E07D6006F
:1015280055080318550A4F07D7008B170B1757088C
:10153800D301D3075608D201D20708000B1D0800B3
:101548008B1E0800D9308312031381000B110A1275
:101558008A1555210A128A15013083120313B6071A
:101568000318B70A0030B70703303702E830031909
:101578003602031CC82A0A128A1565210A128A151E
:1015880083120313B601B7011F1908001F150800BD
:10159800831203130C1E0800831603130C1E080085
:1015A800831203130C128316031363086206031DC8
:1015B800DF2A0C1208006308C23E84008313000867
:1015C8008312031399000130F00070088316031387
:1015D800E3071F30F0007008E30563086206031D87
:1015E80008000C120800831203138C1E08008316CF
:1015F80003138C1E0800831203138C121A08F000C0
:10160800831603134008A03E8400700883138000EB
:101618004008013E1F39F000700883120313CC0004
:10162800831603134108831203134C060319080099
:101638004C08F000700883160313C00008000A1253
:101648008A1552220A128A15F83083120313E4000D
:101658006408831603138105063083120313E4001C
:10166800640883160313810481128111D93083120F
:10167800031381000B118B1600300A128A115320B4
:101688000A128A158B170B170A128A152F210A12AC
:101698008A150A128A1518220A128A150A128A1538
:1016A800AC230A128A15522B831203130C1F08004D
:1016B800831603130C1F0800831203130C133D0831
:1016C800033A0319722B04303D02031C6E2B3D08AC
:1016D800FF3E6F2B3D08F0007008CA00FF308316EC
:1016E80003131E05F0000330831203131E05F100D7
:1016F8004A08F2007207A93E840070088317800028
:10170800840A7108800007303D020318982B0130C5
:10171800F0007008BD073D08033A031D992B0130FE
:10172800F0007008BD07992BBD01C730F0007008A4
:101738009F053D08F00002300310F00DFF3E031D29
:10174800A02B0310700D3839F10071089F040800B0
:10175800831203132F08D301D3072E08D201D2070F
:101768000A128A1579220A128A158312031353085A
:10177800B101B1075208B001B0070030310264303E
:1017880003193002031C08000A128A1534220A12AF
:101798008A15831203135308AF01AF075208AE012D
:1017A800AE0718303902031CDF2B1830E000600840
:1017B800B900BA01E72B023039020318E72BBA0146
:1017C800BA0AB901B90A3A080319EF2B0130E00047
:1017D8006008B907F12B0130B9023908903E84003E
:1017E80083170008E0006008B8003808E0006008C7
:1017F800DB0000300A128A118925080083120313BE
:10180800D600D801D80AD70183120313D8080319C0
:101818000800D8010130D2005208D707DA0157086A
:10182800D200D301D209D309D20A0319D30A560820
:101838005207D40053080318530AD5005508803AB4
:10184800803C031D292C54085A020318082C033025
:1018580083120313D2005208CE005A08013E0A121E
:101868008A15AA210A128A15023E203E8400831393
:10187800000883120313D3005308D9000330D200A1
:101888005208CE005A080A128A15AA210A128A1585
:10189800023E203E8400831300088312031359027A
:1018A80003183E2D0330D2005208CE005A080A12FF
:1018B8008A15AA210A128A15203E8400831300087B
:1018C80083120313D3005308D9000330D2005208FF
:1018D800CE005A08013E0A128A15AA210A128A1550
:1018E800203E84008313000883120313D3000330BF
:1018F800D4005408CE005A080A128A15AA210A12DE
:101908008A15203E84008312031353088313800032
:101918005908D2000330D3005308CE005A08013EBC
:101928000A128A15AA210A128A15203E84008312F7
:1019380003135208831380000330D2005208CE00EC
:101948005A080A128A15AA210A128A15023E203E4E
:1019580084008313000883120313D3005308D900AB
:101968000330D2005208CE005A08013E0A128A15E6
:10197800AA210A128A15023E203E84008313000819
:1019880083120313D3000330D4005408CE005A083E
:101998000A128A15AA210A128A15023E203E8400DC
:1019A800831203135308831380005908D2000330AD
:1019B800D3005308CE005A08013E0A128A15AA21FC
:1019C8000A128A15023E203E84008312031352082D
:1019D800831380000330D2005208CE005A080A123E
:1019E8008A15AA210A128A15013E203E8400831313
:1019F800000883120313D3005308D9000330D20020
:101A08005208CE005A08013E0A128A15AA210A1263
:101A18008A15013E203E84008313000883120313B5
:101A2800D3000330D4005408CE005A080A128A158D
:101A3800AA210A128A15013E203E8400831203134C
:101A48005308831380005908D2000330D300530889
:101A5800CE005A08013E0A128A15AA210A128A15CE
:101A6800013E203E84008312031352088313800032
:101A7800D801D80A0130D2005208DA07132C831291
:101A88000313E000DF01FC30DD005D0892059214CD
:101A98008730DD005D08920512160A30DD005D080A
:101AA800ED00AE2DFE30662DFD30652DFB30652D29
:101AB800F730652DEF30652DDF30652DBF30652D92
:101AC8007F308312DD005D08831603138705082E17
:101AD800FE30772DFD30772DFB30772DF730772DC1
:101AE800EF30772DDF308312DD005D088316031396
:101AF8008605082EFE30852DFD30852DFB30852D81
:101B0800DF308312DD005D08831603138505082E78
:101B1800FE30912DFD30912DFB308312DD005D08E4
:101B2800831603138905082EFE30A72DFD30A72D37
:101B3800FB30A72DF730A72DEF30A72DDF30A72DCD
:101B4800BF30A72D7F308312DD005D088316031395
:101B58008805082E83125B08003A0319562D013AAE
:101B68000319582D033A03195A2D013A03195C2D0C
:101B7800073A03195E2D013A0319602D033A031938
:101B8800622D013A0319642D0F3A03196C2D013A9D
:101B980003196E2D033A0319702D013A0319722D9A
:101BA800073A0319742D013A0319762D033A0319DC
:101BB8007E2D013A0319802D1F3A0319822D013A0F
:101BC8000319842D033A03198C2D013A03198E2D1C
:101BD800073A0319902D013A0319982D033A03196E
:101BE8009A2D013A03199C2D0F3A03199E2D013A9B
:101BF8000319A02D033A0319A22D013A0319A42DA4
:101C0800073A0319A62D082E8312E101480861023C
:101C18000318502E0330DD005D08CE0061080A125B
:101C28008A15AA210A128A15203E84008313000807
:101C3800831203136006031D4B2E5B08DD0003307F
:101C4800DE005E08CE0061080A128A15AA210A126F
:101C58008A15013E203E8400831203135D08831316
:101C680080005C08DD000330DE005E08CE006108FD
:101C78000A128A15AA210A128A15023E203E8400F9
:101C8800831203135D0883138000DF01DF0A01302C
:101C9800DD005D08E1070A2EDF08031D922E6008AB
:101CA800DD000330DE005E08CE0048080A128A15FF
:101CB800AA210A128A15203E8400831203135D08A4
:101CC800831380005B08DD000330DE005E08CE0071
:101CD80048080A128A15AA210A128A15013E203ECE
:101CE8008400831203135D08831380005C08DD0001
:101CF8000330DE005E08CE0048080A128A15AA21C1
:101D08000A128A15023E203E8400831203135D08DE
:101D1800831380000130DD005D08C807CD08031D6E
:101D2800FB2FCD01CD0A22080319782FD52E0714D1
:101D3800D12F8714D12F0715D12F8715D12F07162B
:101D4800D12F8716D12F0717D12F8717D12F061418
:101D5800D12F8614D12F0615D12F8615D12F06160F
:101D6800D12F8616D12F0514D12F8514D12F051503
:101D7800D12F8516D12F0914D12F8914D12F0915E8
:101D8800D12F0814D12F8814D12F0815D12F8815D9
:101D9800D12F0816D12F8816D12F0817D12F8817C1
:101DA800D12F2108003A03199B2E013A03199D2EC1
:101DB800033A03199F2E013A0319A12E073A031972
:101DC800A32E013A0319A52E033A0319A72E013AA7
:101DD8000319A92E0F3A0319AB2E013A0319AD2E98
:101DE800033A0319AF2E013A0319B12E073A031922
:101DF800B32E013A0319B52E033A0319B72E013A47
:101E08000319B92E1F3A0319BB2E013A0319BD2E27
:101E1800033A0319BF2E013A0319C12E073A0319D1
:101E2800C32E013A0319C52E033A0319C72E013AE6
:101E38000319C92E0F3A0319CB2E013A0319CD2ED7
:101E4800033A0319CF2E013A0319D12E073A031981
:101E5800D32ED12FD12FFE303E2FFD303E2FFB3019
:101E68003E2FF7303E2FEF303E2FDF303E2FBF3072
:101E78003E2F7F30DD005D088705D12FFE304D2FC6
:101E8800FD304D2FFB304D2FF7304D2FEF304D2FBC
:101E9800DF30DD005D088605D12FFE30582FFD307C
:101EA800582FFB30582FDF30DD005D088505D12F16
:101EB800FE30612FFD30612FFB30DD005D088905A4
:101EC800D12FFE30742FFD30742FFB30742FF73074
:101ED800742FEF30742FDF30742FBF30742F7F30A2
:101EE800DD005D088805D12F2108003A03192F2F3E
:101EF800013A0319312F033A0319332F013A031911
:101F0800352F073A0319372F013A0319392F033AA6
:101F180003193B2F013A03193D2F0F3A0319422F9A
:101F2800013A0319442F033A0319462F013A0319BA
:101F3800482F073A03194A2F013A03194C2F033A3D
:101F48000319512F013A0319532F1F3A0319552F1B
:101F5800013A0319572F033A03195C2F013A031961
:101F68005E2F073A0319602F013A0319652F033AC8
:101F78000319672F013A0319692F0F3A03196B2FB9
:101F8800013A03196D2F033A03196F2F013A031908
:101F9800712F073A0319732FD12FFD012208FF3A39
:101FA8000319E92F2208FF3E8316031392008312B8
:101FB80003138C10831603138C1483120313121546
:101FC8002208DD005D08FC000800FE3083160313BC
:101FD8009200831203138C10831603138C1483123C
:101FE800031312150430DD005D08FD0008004808E1
:081FF8000A128A1502240800F8
:02400E0032FF7F
:00000001FF
